:040000008031102813
:100008007E1480310B1F0E2841011A19101D0E286D
:100018008531CB257E10090080311228FC01FD01B5
:1000280065308400003085000B3086312826803109
:10003800A0308400003085001130863128268031B8
:1000480020308400013085004030863128267E101B
:1000580040018531662D40019A127B01A1014101C1
:100068001A114D0196018D15410110118531202578
:100078008031FF3A031D4428003081317F218031CF
:10008800853120258031283E840084300318013EC4
:10009800850000084001EF006F08F0390319572860
:1000A8000130EE005828EE016E08031978286830F0
:1000B800F900E430890B5E28F90B5E280032400114
:1000C8008C1A6828ED016A280130ED006D08031DBF
:1000D8006F286F0876286F08F9000430F936890B05
:1000E800722879080F39EF006F08031D7D28013049
:1000F800EF006E03031D89286F03031D89284D0136
:10010800960180308D000430930028307B01A300D5
:10011800043040016F060319952806306F06031D49
:10012800A32802307C01D70002307B0198002430DC
:10013800990025309A0026309B002730A300033011
:1001480040016F060319AC2804306F06031DAF2861
:10015800E901E801B62806306F06031DB928E90150
:100168000F30E800E701E601C028E9010130E800A6
:100178000230E7000330E6004A010C18C0284001AD
:1001880066084A018D00400167084A018E00400157
:1001980068084A018F00400169084A01900040013F
:1001A800E5016F03031DE5286E08031DE0284D30A7
:1001B8004101A300033008297D304101A300033029
:1001C800082902306F06031DEE28D3304101A30031
:1001D8000130082903306F06031DF7289F304101BD
:1001E800A3000230082904306F060319FF280630DF
:1001F8006F06031D04295E304101A300023008295F
:10020800D4304101A3000330A40040018C1E092909
:100218004D018D110D150D11410110111A154001D7
:100228009A1601307B01A1000800183080150F18BC
:100238000006A514E9010A280E38343DAD00DA009D
:1002480040030A28AC008A0D6018343DB000000154
:10025800000000006200CA0CA000C60CA008050A35
:100268007020C3140000000000001E0001000D1ED5
:10027800A70B0104AE02CA0D6018142940010C1422
:1002880081010C30E8010A280510343DAF00F00068
:1002980000000000AF00EA0D6018A615A6340A0693
:1002A80040130A28000000000000142940010F1420
:1002B8004013801500180000000000000000000036
:1002C800000000000000003CE00900000000000001
:1002D80000000000010101201F3CE1031F3CF00168
:1002E8001F3EE0031F3EE1031F3C0000000000002A
:1002F8000000003800004001E00020308600003097
:1003080087004030F70000301E00F70B8829FB30CB
:10031800F0001F30F100863121268131710840013B
:10032800E2007008E1005530F000AA30F100863193
:10033800342681316208F1006108F00084314824D4
:1003480081314001E3008631502681316308031969
:10035800B02986315626813140016008F700F8013E
:100368007708A0007808A1005530F000AA30F10005
:100378008631342681316208F1006108F0002030AE
:10038800F2008231E02281314001E30086315026BB
:100398008131630803190800863156260800403069
:1003A80040010E05E4000C0817396404EB006B08E3
:1003B8001639EC000E081F39EA0012306C06031DCE
:1003C800012A85318425813140016508031DFB29F7
:1003D80053306B06031D08000A306A060319F82912
:1003E80015306A06031D08000130E50008006A0898
:1003F800FA006B0886310826080010306C06031DC9
:10040800082A85319325080006306C06031D0F2A3B
:100418008531A225080004306C06031D162A6508DC
:10042800031D192A86311A2608008531B1250800CE
:100438004001980199019A013730920093015F3089
:1004480094007D018C019601A00137308D00F030B9
:100458009700FF30A1008E0198012030A2003730AC
:100468008F00F0309900DF30A300083090009A0127
:10047800A40101307C01BF000130D7000530BD0068
:100488001630BE000430D80024307B019800253097
:10049800990026309A0027309B002830A3007D0160
:1004A8009101920193019B019C019D01A501A60167
:1004B800A7010800403040010E05E4000C08173978
:1004C8006404EC000E081F39EA006503031D6F2A57
:1004D8008331A923080007306C06031D762A85316D
:1004E8004425080006306C06031D7D2A85315525F4
:1004F800080053306C06031D9C2A6508031D9C2ABE
:100508000A306A0603198C2A15306A06031D9C2ACC
:100518000130E50001307C01D70024307B019800D0
:100528002530990026309A0027309B002830A300F8
:1005380086311A260800403040010E05E4000C08F8
:1005480017396404EC000E081F39EA006503031D1F
:10055800B02A8331A923080047306C06031DB72A47
:1005680085313325080007306C06031DBE2A853106
:100578004425080046306C06031DC52A85315525DB
:10058800080006306C06031DCC2A85317525080045
:1005980053306C06031DDD2A6508031DDD2A0A3069
:1005A8006A060319DB2A15306A06031DDD2A0130A5
:1005B800E50086311A2608002030F6000B0D0B0DD9
:1005C8000139F50079011013101590160130F60263
:1005D800760A0319162B71088D0070088C000130FB
:1005E800F0070030F13D720886008701403FF300B4
:1005F800413FF40074088F007208860087010108E3
:100608008E000230F2077608031990128B137D08CA
:1006180091007C0891009014750C031C8B1303182F
:100628008B17EA2A1011901D1B2B0130080000308F
:100638000800BB340434003400340034003400347F
:100648000034003400340034003400340034003402
:1006580000340034003400340034003400340034F2
:1006680000340034003400340034003400340034E2
:1006780000340034003400340034003400340034D2
:100688000034F4340534EA340534003400340034DA
:100698000034403040010E05E4000C0817396404AA
:1006A800EC000E081F39EA0013306C06031D5F2B9F
:1006B80085313325080011306C06031D662B853102
:1006C8004425080007306C06031D6D2B8531552520
:1006D800080005306C06031D742B8531752508004C
:1006E8006A08FA006C088631082683318531D625D8
:1006F800080040010C081739EC000E081F39EA0001
:1007080013306C06031D8B2B8531842508001130AE
:100718006C06031D922B85319325080007306C0663
:10072800031D992B8531A225080005306C06031D91
:10073800A02B8531B12508006A08FA006C088631BB
:100748000826833186311A2608000C081739EC0070
:100758000E081F39EA0013306C06031DB62B8531CD
:100768008425080011306C06031DBD2B85319325A7
:10077800080007306C06031DC42B8531A22508002C
:1007880005306C06031DCB2B8531B12508006A089E
:10079800FA006C0886310826833186311A2608004B
:1007A80040010C081739EC000E081F39EA00043024
:1007B8006C06031DE22B86311A26080011306C06E0
:1007C800031DE92B85319325080007306C06031DAE
:1007D800F02B8531A225080005306C06031DF72B88
:1007E8008531B12508006A08FA006C0886310826A8
:1007F8008331DF2B7901A5010730A6000730A70058
:100808002508F3390838A500A401A301A201D530B1
:10081800A100F330A505A401A301A201A101A00133
:100828009F019E019D01FF309700FF3096009401C3
:1008380093019A0141018D1097100D11171179013B
:10084800A50110309200080000340134023403344A
:100858000434053406341134123413341434153482
:10086800213422342334243425343134323433349B
:1008780034343534413442344334443445345134C7
:1008880052345334543455340B0D0B0D0139F200E6
:10089800710879018D0070088C001013101610155E
:1008A8008B137D0891007C0891009014720C031C36
:1008B8008B1303188B171011901D642C013008003E
:1008C8000030080001304D0196000E308D000230D6
:1008D8008E0002308F00023090000230910002300A
:1008E8009200930194019501970182308C000030A9
:1008F800F0000030F10086312E26901108007408AF
:10090800663EF6000030753DF7007508F100740882
:10091800F0007708F3007608F2008531FE2584316F
:1009280086314C268431863143268431003A031DB2
:10093800972C863148260800863111268431843167
:10094800F124843182311C2284318431D6248431CB
:100958008431662484318331FE2384318431BB247D
:1009680084318631532684318531E02508004830AA
:100978004E0192009030900026309100FF308E009A
:100988008F010030F0000030F1008531F42584310A
:100998000030F0000030F1008531EA254101A9015D
:1009A800AA0108004D01960182308D008E010130A8
:1009B8008F009001910101309200930194019501FB
:1009C80097018C308C00410110115930F00006302D
:1009D800F10086313E261A1508004A018C13193099
:1009E800F4000130F5008431832406304A01950073
:1009F8009901980197019601410113101D10931058
:100A08009D1013111D1193119D114A018C17080097
:100A1800F90041012108A2002008A1007908A000DE
:100A280015302106031D08000A302206031D0800A0
:100A3800200881317F210800FB30F0001F30F100D1
:100A48008631212685317108F3007008F200730899
:100A5800F1007208F0008531BF25700808006A08A7
:100A68004A018D00400169084A01900040018C1E2E
:100A78003A2D4D010D15410110114D010D110800C0
:100A88006A084A018E00400169084A019000400145
:100A98008C1E4B2D4D010D15410110114D010D11ED
:100AA80008006A084A018F00400169084A0190005D
:100AB80040018C1E5C2D4D010D15410110114D0199
:100AC8000D1108008431A024853180312F20853113
:100AD8004101101D6C2D24088A0023080A00853165
:100AE8006C2D6A084A01900040016A08E9008C1ED2
:100AF8007B2D4D010D15410110114D010D110800FF
:100B08004D010D1540016A084A018D004001690830
:100B18004A019000410110114D010D1108004D01CD
:100B28000D1540016A084A018E00400169084A0112
:100B38009000410110114D010D1108004D010D15D6
:100B480040016A084A018F00400169084A01900083
:100B5800410110114D010D1108004D010D15400105
:100B68006A084A01900040016A08E9004101101131
:100B78004D010D110800710879018D0070088C0075
:100B8800101310140F08F1000E08F00008001011DF
:100B98002F0830040319080030088A002F080A00BB
:100BA8008531080040018C1ED62D4D010D154101DF
:100BB80010114D010D11080041010C100B140030EB
:100BC800F0000030F1008631392608007008710401
:100BD8000319080071084101A6007008A500080063
:100BE800700871040319080071084101A800700811
:100BF800A700080073087901970072089600710829
:100C08009400700893000800FB0012307B06031D57
:100C180008007A0885310C250800603045018D00F0
:100C28008F01910105309300920108004D010D15C7
:100C3800410110114D010D110800E0307005F00060
:100C48001F307105F1000800640080010131890B33
:100C5800292E003471084101AE007008AD0008006B
:100C68007108FC007008FD0008007108AC007008ED
:100C7800AB0008007108B0007008AF0008007901E7
:100C8800120E890C0139080019101213921308006A
:100C98009217191412170800FC01FD01080086318B
:0C0CA80056260800790190110800080091
:020000040001F9
:0A000E008C3FFF3D9F3FFF3FFF3F87
:00000001FF
