:040000008031102813
:100008007E1480310B1F0E2841011A19101D0E286D
:100018008531FB257E10090080311228FC01FD0185
:1000280065308400003085000B30863147268031EA
:10003800A030840000308500123086314726803198
:1000480020308400013085004030863147267E10FC
:1000580040018531C82D40019A127B01A10141015F
:100068001A114D0196018D154101101185315B253D
:100078008031FF3A031D44280030813189218031C5
:1000880085315B258031273E840084300318013E8A
:10009800850000084001EF006F08F0390319572860
:1000A8000130EE005828EE016E08031978286830F0
:1000B800F900E430890B5E28F90B5E280032400114
:1000C8008C1A6828ED016A280130ED006D08031DBF
:1000D8006F286F0876286F08F9000430F936890B05
:1000E800722879080F39EF006F08031D7D28013049
:1000F800EF006E03031D89286F03031D89284D0136
:10010800960180308D000430930028307B01A300D5
:10011800043040016F060319952806306F06031D49
:10012800A32802307C01D70002307B0198002430DC
:10013800990025309A0026309B002730A300033011
:1001480040016F060319AC2804306F06031DAF2861
:10015800E901E801B62806306F06031DBA28E9014F
:100168000F30E800E7014101B101C228E90101307F
:10017800E8000230E70003304101B1004A010C18E1
:10018800C228410131084A018D00400167084A012F
:100198008E00400168084A018F00400169084A0141
:1001A800900040016F03031DE6286E08031DE12837
:1001B8000B304101A300033009296F304101A3002E
:1001C8000330092902306F06031DEF28D2304101A0
:1001D800A3000230092903306F06031DF828973061
:1001E8004101A3000230092904306F0603190029D0
:1001F80006306F06031D05295C304101A30002305B
:100208000929CF304101A3000330A40040018C1E0E
:100218000A294D0196018D110D150D11410110117D
:100228001A154D010D084001E5004D010D0804386F
:100238004001E6009A1601307B01A1000800183041
:1002480080150F180006A514E9010A280E38343D58
:10025800AD00DA0040030A28AC008A0D6018343D6E
:10026800B0000001000000006200CA0CA000C60C2B
:10027800A008050A7020C3140000000000001E003A
:1002880001000D1EA70B0104AE02CA0D6018142947
:1002980040010C1481010C30E8010A280510343D96
:1002A800AF00F00000000000AF00EA0D6018A615CE
:1002B800A6340A0640130A2800000000000014298A
:1002C80040010F14401380150018000000000000C2
:1002D80000000000000000000000003CE0090000F1
:1002E8000000000000000000010101201F3CE103A4
:1002F8001F3CF0011F3EE0031F3EE1031F3C0000CE
:10030800000000000000003800004001E00020303C
:100318008600003087004030F70000301E00F70BE1
:100328009229FB30F0001F30F100863140268131E0
:1003380071084001E2007008E1005530F000AA3071
:10034800F1008631532681316208F1006108F0001E
:100358008431472481314001E30086316F268131A1
:1003680063080319BA29863175268131400160086E
:10037800F700F8017708A0007808A1005530F000D0
:10038800AA30F1008631532681316208F1006108F4
:10039800F0002030F20082311F2281314001E30059
:1003A80086316F2681316308031908008631752666
:1003B80008004001980199019A0137309200930191
:1003C8005F3094007D018C019601A00137308D00CB
:1003D800F0309700FF30A1008E0198012030A20074
:1003E80037308F00F0309900DF30A30008309000DC
:1003F8009A01A40101307C01BF000130D70005300B
:10040800BD001630BE000430D80024307B019800AF
:100418002530990026309A0027309B002830A30009
:100428007D019101920193019B019C019D01A50110
:10043800A601A70108002030F6000B0D0B0D0139AD
:10044800F50079011013101590160130F602760A9E
:100458000319552A71088D0070088C000130F007C7
:100468000030F13D720886008701403FF300413FAC
:10047800F40074088F0072088600870101088E0056
:100488000230F2077608031990128B137D08910049
:100498007C0891009014750C031C8B1303188B17A0
:1004A800292A1011901D5A2A01300800003008002E
:1004B800403040010E05F0000C0817397004EC00BC
:1004C8000E081F39EA0007306C06031D6E2A8531B5
:1004D8003325080006306C06031D752A853147252B
:1004E800080053306C06031D942A0A306A06031963
:1004F800812A15306A06031D942A9F304101A30002
:100508000330A40001307C01D70024307B0198001F
:100518002530990026309A0027309B002830A30008
:100528008531D7250800403040010E05F0000C0841
:1005380017397004EC000E081F39EA0047306C06C2
:10054800031DA92A85311F25080007306C06031DE5
:10055800B02A85313325080046306C06031DB72ABA
:1005680085314725080006306C06031DBE2A8531F3
:100578006E25080053306C06031DCF2A0A306A0620
:100588000319CA2A15306A06031DCF2A9F30410174
:10059800A3000330A4008531D7250800403040016E
:1005A8000E05F0000C0817397004EB006B081639BB
:1005B800EC000E081F39EA0012306C06031DFA2AF7
:1005C800853181258231533040016B06031D0800B7
:1005D8000A306A060319F42A15306A06031D080052
:1005E8009F304101A3000330A400080010306C06BE
:1005F800031D012B85319325080006306C06031D69
:10060800082B8531A52508008531F02508004030E4
:1006180040010E05E4000C0817396404EC000E08CC
:100628001F39EA0011306C06031D1D2B8531332557
:10063800080013306C06031D242B85311F25080084
:1006480007306C06031D2B2B853147250800053024
:100658006C06031D322B85316E25080012306C069E
:10066800031D3C2B6A08FA006C0886312E2683315C
:100678008531D7250800BA340434003400340034F6
:1006880000340034003400340034003400340034C2
:1006980000340034003400340034003400340034B2
:1006A80000340034003400340034003400340034A2
:1006B8000034003400340034003400340034003492
:1006C8000034003400341A3406341034063400344C
:1006D80000340034003440010C081739EC000E08CF
:1006E8001F39EA0011306C06031D7D2B85319325D7
:1006F800080013306C06031D842B85318125080002
:1007080007306C06031D8B2B8531A52508000530A5
:100718006C06031D922B8531B725080012306C0634
:10072800031D9C2B6A08FA006C0886312E2683313B
:100738008531F025080040010C081739EC000E0837
:100748001F39EA0013306C06031DAD2B8531812556
:10075800080011306C06031DB42B85319325080061
:1007680007306C06031DBB2B8531A5250800053015
:100778006C06031DC22B8531B725080012306C06A4
:10078800031DCC2B6A08FA006C0886312E268331AB
:100798008531F025080040010C081739EC000E08D7
:1007A8001F39EA0004306C06031DDD2B8531F02566
:1007B800080011306C06031DE42B853193250800D1
:1007C80007306C06031DEB2B8531A5250800053085
:1007D8006C06031DF22B8531B725080012306C0614
:1007E800031DDA2B6A08FA006C0886312E2683313D
:1007F800DA2B7901A5010730A6000730A7002508E4
:10080800F3390838A500A401A301A201D530A1003D
:10081800F330A505A401A301A201A101A0019F0134
:100828009E019D01FF309700FF30960094019301CF
:100838009A0141018D1097100D1117117901A50129
:1008480010309200080000340134023403340434B8
:100858000534063411341234133414341534213465
:100868002234233424342534313432343334343488
:1008780035344134423443344434453451345234A9
:100888005334543455340B0D0B0D0139F2007108F3
:1008980079018D0070088C001013101610158B1339
:1008A8007D0891007C0891009014720C031C8B1336
:1008B80003188B171011901D632C013008000030AD
:1008C800080001304D0196000E308D0002308E0078
:1008D80002308F0002309000023091000230920006
:1008E800930194019501970182308C000030F0004B
:1008F8000030F10086314D26901108007408663EDC
:10090800F6000030753DF7007508F1007408F00036
:100918007708F3007608F200863124268431863180
:100928006B268431863162268431003A031D962C69
:100938008631672608008631372684318431F024D1
:1009480084318131DD2184318431D524843184316D
:10095800652484318331FD2384318431BA24843180
:1009680086317226843186310626080048304E01C9
:1009780092009030900026309100FF308E008F0159
:100988000030F0000030F10086311A268431003042
:10099800F0000030F100863110264101A901AA01BA
:1009A80008004D01960182308D008E0101308F00C4
:1009B80090019101013092009301940195019701F2
:1009C8008C308C00410110117830F0000630F100B5
:1009D80086315D261A1508004A018C132330F4006D
:1009E8000130F5008431822406304A0195009901CE
:1009F800980197019601410113101D1093109D1045
:100A080013111D1193119D114A018C170800F9004B
:100A180041012108A2002008A1007908A000153092
:100A28002106031D08000A302206031D08002008BD
:100A38008131892108008C1E1F2D66084D018D000B
:100A480040016A084A018D00400169084A01900086
:100A580041011011400165084D018D0008008C1EF0
:100A6800332D66084D018D0040016A084A018E0049
:100A7800400169084A0190004101101140016508D0
:100A88004D018D0008008C1E472D66084D018D0014
:100A980040016A084A018F00400169084A01900034
:100AA80041011011400165084D018D000800FB301F
:100AB800F0001F30F1008631402685317108F300BF
:100AC8007008F2007308F1007208F0008531E4251F
:100AD800700808008C1E6E2D66084D018D004001BF
:100AE8006A084A01900041011011400165084D0152
:100AF8008D0040016A08E900080066084D018D0074
:100B080040016A084A018D00400169084A019000C5
:100B180041011011400165084D018D00080066086B
:100B28004D018D0040016A084A018E0040016908A4
:100B38004A01900041011011400165084D018D00E6
:100B4800080066084D018D0040016A084A018F00BF
:100B5800400169084A0190004101101140016508EF
:100B68004D018D00080066084D018D0040016A089E
:100B78004A01900041011011400165084D018D00A6
:100B880040016A08E900080084319F2485318031DA
:100B98002F2085314101101DCE2D24088A002308FD
:100BA8000A008531CE2D40018C1ED72D66084D01D7
:100BB8008D0041011011400165084D018D000800AC
:100BC800710879018D0070088C00101310140F083B
:100BD800F1000E08F0000800400166084D018D0084
:100BE80041011011400165084D018D0008001011E8
:100BF8002F0830040319080030088A002F080A005B
:100C08008631080041010C100B140030F000003050
:100C1800F10086315826080070087104031908008D
:100C280071084101A6007008A50008007008710449
:100C38000319080071084101A8007008A7000800FE
:100C4800730879019700720896007108940070087B
:100C580093000800FB0012307B06031D08007A0889
:100C680085310B250800603045018D008F01910109
:100C78000530930092010800E0307005F0001F3045
:100C88007105F1000800640080010131890B482ECC
:100C9800003471084101AE007008AD000800710809
:100CA800FC007008FD0008007108AC007008AB007B
:100CB80008007108B0007008AF0008007901120E32
:100CC800890C0139080019101213921308009217A1
:100CD800191412170800FC01FD0108008631752659
:0A0CE80008007901901108000800CF
:020000040001F9
:0A000E008C3FFF3D9F3FFF3FFF3F87
:00000001FF
