:040000008031102813
:100008007E1480310B1F0E2841011A19101D0E286D
:100018008331AA237E10090080311228FC01FD01DA
:10002800203084000030850037308331F2237E1081
:1000380040018131B9290000000005006C188314C3
:10004800800138308001000000000000000000003E
:100058000000000000001E000500001E0000000057
:100068008001983080012A1460080F06401380151B
:10007800001800000000041DE1180F044013A0152B
:10008800E91B0A280E381E000700051E6D1A831486
:10009800AE00CA0D60100000000000000000000063
:1000A800490114284001041DE0140F044013E01511
:1000B800E81F141401181429400105146F1E831435
:1000C8000000000000000000000000000000000028
:1000D8000000000000000000000000000000000018
:1000E800010101201F3CE1031F3CF0011F3EE0031A
:1000F8001F3EE1031F3C40010030000000000038B3
:1001080000007408750403198D2874087504031D0C
:100118009128720883319E230800740886007508A8
:1001280087004931160001040319B82874088600AD
:10013800750887004931403FF600413FF7007408D1
:100148008600750887004231403FF800413FF900BA
:100158007908803AFA007708803A7A02031DB628AF
:100168007608780203180800740886007508870066
:1001780042317408840075088500003FF600013F8D
:10018800F700403F76078400413F773D85007208BD
:1001980080007408860075088700423101308107A5
:1001A80041310318810A0800FE3402340034003457
:1001B800003400340F34043400340034B6340334CB
:1001C8000034003400340034003400340034003487
:1001D8000034003400340034003400340034003477
:1001E8000034003400340034003400340034003467
:1001F8000034003400340034D5340334CB340334B1
:10020800003400340034003449344F3445347534F4
:100218003A3420344D3465346734613443344F34D0
:100228004E342D3445346D347534203441345334D0
:1002380043344934493438344B3420345034493405
:100248004334313436340D340A34003441011A1140
:100258004D0196018D15410110114001D401013065
:10026800D3000230D2000330D10051084A018D007A
:10027800400152084A018E00400153084A018F008C
:10028800400154084A01900008304001E6008130DE
:10029800E7008331902381316730E6008330E7003F
:1002A8008331902381314E30E6008330E70083317B
:1002B800902381317F30E6008330E700833190233B
:1002C8008131A930E6008230E70083319023410173
:1002D80010111A154D018D110D150D110800203042
:1002E8004001980099019A011730920093017F30DC
:1002F80094007D018C019601A00137308D00F0300B
:100308009700FF30A10020308E009801A20117301D
:100318008F009901FF30A300083090009A01A401D2
:1003280001307C01BE000130D7000230BF0004302C
:10033800C0000430D8000530BD0001307B019100B9
:10034800243098002530990026309A0027309B00E9
:100358001330A3007D019101920193019B019C013F
:100368009D01A501A601A70108008231E322813180
:1003780081312A2181314101101DBF2940304001BE
:100388000E05E9000C0801396904D6000E083F394A
:10039800D50041305606031DD4295508D100E62959
:1003A8005603031DDA295508D200E62940305606BF
:1003B800031DE1295508D300E6295608031DE6293F
:1003C8005508D4004D010D15400151084A018D0012
:1003D800400152084A018E00400153084A018F002B
:1003E800400154084A019000410110114D010D11BE
:1003F800BF29590886008701403FDB00413FDC00E8
:100408005B0884005C0885001200253A031D262A33
:100418005908860087010130810741310318810A94
:10042800C001C1010030D000FF30C200FF30C3005E
:1004380040015908860087010130810741310318BE
:10044800810A0800590886008701403FDB00413FC8
:10045800DC005B0884005C0885000008DD00DE0124
:100468005D08F2005E08F3005808F5005708F4002C
:100478008031852081311C2A7901A5010730A60029
:100488000730A7002508F3390838A500A401A301FF
:10049800A201D530A100F330A505A401A301A20152
:1004A800A101A0019F019E019D01FF309700FF302F
:1004B8009600940193019A0141018D1097100D1136
:1004C80017117901A50110309200080001304D0183
:1004D800960008308D0001308E0002308F00033006
:1004E80090000130910002309200083093001030E3
:1004F80094009501970182308C000030F0000030A4
:10050800F1008331FE234101901108004D0196014D
:1005180081308D008E0124308F00243090001530FA
:1005280091000230920008309300940195019701E0
:100538008C308C00410110112130F0000430F100A2
:100548008431042441011A1508002034423441340E
:100558004E344B345F34303442345F345034523488
:1005680049344F3452344934543459345F344D3457
:100578004F34443445343A3420344F344E340D34F7
:100588000A3400347408663EF6000030753DF70002
:100598007508F1007408F0007708F3007608F20097
:1005A8008331DF23823184311724823184310A2454
:1005B8008231003A031DDA2A84311324080083317A
:1005C800E9238231833119238231813173218231C8
:1005D80082318A22823182316A22823182314022FA
:1005E80082318231FE22823184311B24823183316F
:1005F800C123080048304E01920090309000263008
:100608009100FF308E008F010030F0000030F100C3
:100618008331D52382310030F0000030F10083317E
:10062800CB234001C801C90108004A018C131F30BF
:10063800F4000030F5008231C62206304A019500E8
:100648009901980197019601410113101D1093100B
:100658009D1013111D1193119D114A018C1708004B
:100668006208E5006108E400640884006508850004
:10067800120003194B2B6008D8005F08D7006430BC
:10068800D9006308DA008131FD218331382BDF017D
:10069800E001080020344F347034743469346D3408
:1006A80069347A346134743469346F346E34203484
:1006B8006C346534763465346C343A3420343234EE
:1006C8000D340A34003420345234653476342E34F0
:1006D800203431342E3430342E3431343A3420340A
:1006E80032343034323435343134303430343434D4
:1006F8000D340A34003420344634413453345434ED
:100708005F344D344F34443445343A3420344F3414
:100718004E340D340A3400346830E8000030DF000D
:10072800E0006708E2006608E1006830E300833112
:1007380034230800F1008331B6238331003A0319CA
:100748009F2B7108F00084310F240800101140011C
:100758004E084F04031908004F088A004E080A0083
:1007680083310800F0014101101FBF2B4E01911E7B
:10077800BF2B0130F0007008080041010C100B1469
:100788000030F0000030F1008331F82308007008D1
:1007980071040319080071084001C5007008C400FD
:1007A8000800700871040319080071084001C700A7
:1007B8007008C6000800730879019700720896004F
:1007C80071089400700893000800603045018D009E
:1007D8008F019101053093009201080064008001A7
:1007E8000131890BF32B003471084001CB007008EC
:1007F800CA00080071084001CD007008CC0008004C
:1008080071084001CF007008CE0008007901120E6F
:10081800890C0139080070084E018D000800191074
:100828001213921308009217191412170800843132
:0C0838001E24080079019011080008003F
:020000040001F9
:0A000E008C3FFF3D9F3FFF3FFF3F87
:00000001FF
