:040000008031102813
:100008007E1480310B1F0E2841011A19101D0E286D
:1000180082313F227E10090080311228F801F9014F
:10002800FA01FB01FC01FD014001A001A101A201AF
:10003800A301A401A501A601A701A801A901AA017C
:10004800AB017E104001813128290000000000002A
:100058000000000000001E00E60100000000000093
:1000680000000000F3000E1080187E3DC115201E10
:1000780000000000490114284001E81DE0000008C4
:100088000000000000000000000000000000000068
:1000980000000F3CF20A0E108008000000000A0061
:1000A800401B0A284A0114284001142A4001001460
:1000B80000000000EE000E108014942940010A147C
:1000C80040230A28000000000000000000000A0089
:1000D80040110A2885013430410100000000000069
:1000E800000000000000D83C81117E3D6115201EF3
:1000F80000000000010001000310E1031F3CF001B3
:100108001F3EE0031F3EE1031F3C400100000000CA
:1001180000000038000040019801303099009A0131
:1001280017309200C0309300FF3094007D018C019D
:100138009601A00137308D00F0309700FF30A10004
:1001480020308E009801A20117308F00F0309900FE
:10015800FF30A300083090009A01A40102307C010E
:10016800BF000230DA000E30BD000F30BE00D701EC
:100178000130D80024307B019800253099007D019A
:100188009101920193019B019C019D01A501A6018A
:10019800A701080009340234003400340034003464
:1001A80000340034003400340034003400340034A7
:1001B8000034003400340034003400340034003497
:1001C8000034003400340034003400340034003487
:1001D8000034003400340034003400340034003477
:1001E800003400345E3402345434023400340034B1
:1001F800003400347901A5010730A6000730A700B4
:100208002508F3390838A500A401A301A201D530B7
:10021800A100F330A505A401A301A201A101A00139
:100228009F019E019D01FF309700FF3096009401C9
:1002380093019A0141018D1097100D111711790141
:10024800A50110309200080081319421813181315B
:10025800502181314101101D2E2940010C1E4229D7
:100268000E08FB004D010D157B084A019000410165
:1002780010114D010D117B09FA002E2994017A08FD
:100288009A004D010D150032FF30400194004101E4
:1002980010114D010D112E2998127B019101410178
:1002A8001A114D0196018D1541011011FB017B09B1
:1002B800FA007B084A018D007B088E007B088F00BE
:1002C8007B0890000C1866294D018D110D150D1134
:1002D800410110111A154001981601307B01910057
:1002E80008004D01960180308D0025308E002430A5
:1002F8008F002430900025309100013092000830A2
:1003080093009401950197018C308C0041011011E4
:10031800A530F0000230F10082318D221A15080054
:1003280082317222813182312422813180318F20C1
:1003380081318131752181318131ED2181318131E5
:10034800B22181318031FE2081318231092281310F
:1003580082319F22813182314A22080002304D01C8
:10036800960001308D0002308E0002308F0002307E
:100378009000023091009201083093009401950199
:10038800970187308C000030F0000030F100823196
:1003980081224101101208007408663EF600003000
:1003A800753DF7007508F1007408F0007708F30050
:1003B8007608F20082316822813182319B228131B4
:1003C800823192228131003A031DE4298231972239
:1003D800080001304D0196000C308D008E0101306F
:1003E8008F00900191010130920004309300940134
:1003F8009501970182308C000030F0000030F10048
:100408008231872241019011080048304E01920044
:100418009030900026309100FF308E008F01003020
:10042800F0000030F10082315E2282310030F000AD
:100438000030F100823154224001A401A5010800D6
:100448004A018C132930F4000030F5008131D021A5
:1004580006304A01950099019801970196014101DA
:1004680013101D1093109D1013111D1193119D1140
:100478004A018C170800101178087904031908003C
:1004880079088A0078080A008231080041010C10B6
:100498000B140030F0000030F10082317B2208009C
:1004A800700871040319080071084001A100700860
:1004B800A0000800700871040319080071084001C1
:1004C800A3007008A2000800730879019700720859
:1004D8009600710894007008930008006030450188
:1004E8008D008F0191010530930092010800710879
:1004F8004001A7007008A600080071084001A90083
:100508007008A800080071084001AB007008AA0034
:1005180008007108F9007008F80008007901120E47
:10052800890C013908001910121392130800921748
:100538001914121708008231A222080079019011BB
:04054800080008009F
:020000040001F9
:0A000E008C3FFF3D9F3FFF3FFF3F87
:00000001FF
