:040000008031102813
:100008007E1480310B1F0E2841011A19101D0E286D
:1000180082313A227E10090080311228F801F90154
:10002800FA01FB01FC01FD014001A001A101A201AF
:10003800A301A401A501A601A701A801A901AA017C
:10004800AB017E10400181312B2900000000000027
:100058000000000000001E00E60100000000000093
:1000680000000000F3000E1080187E3DC115201E10
:1000780000000000490114284001E81DE0000008C4
:100088000000000000000000000000000000000068
:1000980000000F3CF20A0E108008000000000A0061
:1000A800401B0A284A0114284001142A4001001460
:1000B80000000000EE000E108014942940010A147C
:1000C80040230A28000000000000000000000A0089
:1000D80040110A2885013430410100000000000069
:1000E800000000000000D83C81117E3D6115201EF3
:1000F80000000000010001000310E1031F3CF001B3
:100108001F3EE0031F3EE1031F3C400100000000CA
:10011800000000380000203040019800303099007D
:100128009A0117309200C0309300FF3094007D018F
:100138008C019601A00137308D00F0309700FF3018
:10014800A10020308E009801A20117308F00F030F6
:100158009900FF30A300283090009A01A4010230D2
:100168007C01BF000230DA000E30BD000F30BE0047
:10017800D7010130D80001307B019100243098006C
:10018800253099007D019101920193019B019C0109
:100198009D01A501A601A70108000434023400341A
:1001A80000340034003400340034003400340034A7
:1001B8000034003400340034003400340034003497
:1001C8000034003400340034003400340034003487
:1001D8000034003400340034003400340034003477
:1001E80000340034003400340034593402344F34BD
:1001F800023400340034003400347901A50107309A
:10020800A6000730A7002508F3390838A500A4017F
:10021800A301A201D530A100F330A505A401A301D3
:10022800A201A101A0019F019E019D01FF3097003D
:10023800FF309600940193019A0141018D109710A7
:100248000D1117117901A5011030920008008131B4
:10025800722181318131AE2181314101101D312955
:1002680040010C1E45290E08FB004D010D157B08A9
:100278004A019000410110114D010D117B09FA004E
:10028800312994017A089A004D010D150032FF308A
:1002980040019400410110114D010D1131294D010A
:1002A800960180308D0025308E0024308F00243058
:1002B800900025309100013092000830930094019D
:1002C800950197018C308C0041011011A030F0008D
:1002D8000230F100823188221A15080082316D221D
:1002E800813182311F22813180318F2081318131EA
:1002F800532181318131E82181318131902181314E
:1003080081310121813182310422813182319A2265
:10031800813182314522080002304D0196000130BA
:100328008D0002308E0002308F00023090000230C3
:10033800910092010830930094019501970187304C
:100348008C000030F0000030F10082317C22410145
:100358001012080041011A114D0196018D15410135
:100368001011FB017B09FA007B084A018D007B080C
:100378008E007B088F007B0890000C18C1294D0166
:100388008D110D150D11410110111A150800740871
:10039800663EF6000030753DF7007508F1007408F8
:1003A800F0007708F3007608F20082316322813189
:1003B80082319622813182318D228131003A031DAA
:1003C800DF2982319222080001304D0196000C305D
:1003D8008D008E0101308F00900191010130920053
:1003E8000430930094019501970182308C0000300D
:1003F800F0000030F10082318222410190110800A2
:1004080048304E0192009030900026309100FF3025
:100418008E008F010030F0000030F1008231592247
:1004280082310030F0000030F10082314F2240016B
:10043800A401A50108004A018C132930F4000030FA
:10044800F5008131CB2106304A01950099019801C8
:1004580097019601410113101D1093109D1013115F
:100468001D1193119D114A018C170800101178086D
:1004780079040319080079088A0078080A0082318B
:10048800080041010C100B140030F0000030F1009E
:100498008231762208007008710403190800710877
:1004A8004001A1007008A000080070087104031939
:1004B800080071084001A3007008A2000800730832
:1004C80079019700720896007108940070089300EB
:1004D8000800603045018D008F01910105309300BF
:1004E8009201080071084001A7007008A6000800E2
:1004F80071084001A9007008A800080071084001AF
:10050800AB007008AA0008007108F9007008F8002C
:1005180008007901120E890C01390800191012130C
:1005280092130800921719141217080082319D229D
:0A0538000800790190110800080086
:020000040001F9
:0A000E008C3FFF3D9F3FFF3FFF3F87
:00000001FF
