:04000000803117280C
:100008007E1480310B1F152841019A1A901E102862
:1000180082315F22803115281A19101D1528823166
:100028006B227E10090080311928FA01FB0120306B
:1000380084000030850010308231A8227E104001F3
:1000480081314A29E1031F3CF0211F3EF0031F3E86
:10005800E1031F3EE103FF3D501E1F3EF003063F34
:10006800B720663D681EE208F009FF3F8F001F3E7B
:10007800E1031F3E0236A609FA035F13EA2B1F3E6F
:10008800E1031F3EE1031F3CFA215F11EA2B1F3EEB
:10009800E1031F3EE1031F3CF0211F3EF0031F3E1A
:1000A800E1031F3E352A5F3DF0151F3EF003A53ED4
:1000B800FE3FE31555295F3DFA155F25EA2B1F3EE4
:1000C800E1031F3EE1031F3CFA215F19EA2BEE3ED4
:1000D800491C813C1021BF05201A1F3EF003E53F53
:1000E800EA3FE315EE1D9F087A085F1BEA2B013EE5
:1000F80001001F11F1231F3DF8111F3FE8231F3F87
:10010800F1231F3DE001000000000000003800005E
:1001180040019801303099009A0117309200C030A0
:100128009300FF3094007D018C019601A0013730C7
:100138008D00F0309700FF30A10020308E0098012C
:10014800A20117308F00F0309900FF30A30008306B
:1001580090009A01A40102307C01BF000E30BD005E
:100168000F30BE00D7010130D80024307B01980041
:10017800253099007D019101920193019B019C0119
:100188009D01A501A601A701080029340234003405
:1001980000340034003400340034003400340034B7
:1001A80000340034003400340034003400340034A7
:1001B8000034003400340034003400340034003497
:1001C8000034003400340034003400340034003487
:1001D800003400340034003400348B340234813469
:1001E800023400340034003400347901A5010730AA
:1001F800A6000730A7002508F3390838A500A40190
:10020800A301A201D530A100F330A505A401A301E3
:10021800A201A101A0019F019E019D01FF3097004D
:10022800FF309600940193019A0141018D109710B7
:100238000D1117117901A5011030920008009812CC
:100248007B01910141011A114D0196018D15410162
:100258001011F0017009F10070084A018D00700852
:100268008E0070088F00700890000C1839294D0115
:100278008D110D150D11410110111A1590129A16B4
:100288004001981601307B019100080081317021EE
:1002980081318131232181315D290E08F0007008F8
:1002A8004A0190004D0184308D0080308D00700926
:1002B800F1004101101DFE33101140010C1A5129A3
:1002C80071089A0094014D0184308D0080308D00B2
:1002D800FF30400194005D2982319F2281318031B5
:1002E8008C2081318231442281318131B2218131A6
:1002F80082310D2281318131D221813181319121A7
:1003080081318031F9208131823129228131823154
:10031800D922813182317722080003304D019600BD
:100328008D0102308E0024308F002330900024305D
:10033800910002309200083093001030940095012B
:10034800970194308C0041019012DF30F2000230A6
:10035800F3008231B42241019A1608004D0196013A
:1003680080308D0002308E0024308F0024309000C1
:1003780025309100013092000830930094019501D6
:1003880097018C308C0041011011E030F2000230EE
:10039800F3008231C62241011A15080002304D01CE
:1003A800960001308D0002308E0002308F0002303E
:1003B8009000023091009201083093009401950159
:1003C800970187308C000030F2000030F300823152
:1003D800BA224101101208007608663EF800003083
:1003E800773DF9007708F3007608F2007908F50000
:1003F8007808F4008231952281318231D522813109
:100408008231CC228131003A031D042A8231D12263
:10041800080001304D0196000C308D008E0101302E
:100428008F009001910101309200043093009401F3
:100438009501970182308C000030F2000030F30003
:100448008231C02241019011080048304E019200CB
:100458009030900026309100FF308E008F010030E0
:10046800F2000030F30082318B2282310030F2003A
:100478000030F300823181224001A401A501080067
:100488004A018C132630F6000030F7008131F02144
:1004980006304A019500990198019701960141019A
:1004A80013101D1093109D1013111D1193119D1100
:1004B8004A018C17080090124001280829040319E2
:1004C800080029088A0028080A008231080010114B
:1004D80040012E082F04031908002F088A002E084F
:1004E8000A008231080041010C100B140030F200A0
:1004F8000030F3008231AE22080072087304031939
:10050800080073084001A1007208A00008007208E2
:1005180073040319080073084001A3007208A200BD
:10052800080075087901970074089600730894000C
:10053800720893000800603045018D008F01910119
:100548000530930092010800640080010131890B95
:10055800A92A003473084001A7007208A600080001
:1005680073084001A9007208A80008007308400138
:10057800AB007208AA00080073084001AD007208B9
:10058800AC00080073084001AF007208AE00080014
:100598007901120E890C01390800191012139213EF
:1005A800080092171914121708008231DC2208007B
:0A05B8007901901108000800080006
:020000040001F9
:0A000E008C3FFF3D9F3FFF3FFF3F87
:00000001FF
