:040000008031102813
:100008007E1480310B1F0E2841011A19101D0E286D
:10001800833141237E10090080311228FC01FD0143
:1000280020308400003085003530833189237E10EC
:100038004001813165290000000005006C18831417
:10004800800138308001000000000000000000003E
:100058000000000000001E000500001E0000000057
:100068008001983080012A1460080F06401380151B
:10007800001800000000041DE1180F044013A0152B
:10008800E91B0A280E381E000700051E6D1A831486
:10009800AE00CA0D60100000000000000000000063
:1000A800490114284001041DE0140F044013E01511
:1000B800E81F141401181429400105146F1E831435
:1000C8000000000000000000000000000000000028
:1000D8000000000000000000000000000000000018
:1000E800010101201F3CE1031F3CF0011F3EE0031A
:1000F8001F3EE1031F3C40010030000000000038B3
:1001080000007408750403198D2874087504031D0C
:100118009128720883313523080074088600750811
:1001280087004931160001040319B82874088600AD
:10013800750887004931403FF600413FF7007408D1
:100148008600750887004231403FF800413FF900BA
:100158007908803AFA007708803A7A02031DB628AF
:100168007608780203180800740886007508870066
:1001780042317408840075088500003FF600013F8D
:10018800F700403F76078400413F773D85007208BD
:1001980080007408860075088700423101308107A5
:1001A80041310318810A08008E34023400340034C7
:1001B80000340034A0340334003400344D340334A4
:1001C8000034003400340034003400340034003487
:1001D8000034003400340034003400340034003477
:1001E8000034003400340034003400340034003467
:1001F80000340034003400346C3403346234033483
:10020800003400340034003449344F3445347534F4
:100218003A3420344D3465346734613453344334CC
:1002280043342D3445346D347534203450344934D6
:100238004334313436340D340A34003457088600D8
:100248008701403FD900413FDA00590884005A0825
:1002580085001200253A031D4B295708860087019F
:100268000130810741310318810AC001C101003002
:10027800CE00FF30C200FF30C3004001570886009F
:1002880087010130810741310318810A08005708A6
:1002980086008701403FD900413FDA0059088400B1
:1002A8005A0885000008DB00DC015B08F2005C08E6
:1002B800F3005608F5005508F40080318520813197
:1002C800412983310F2381318131A62181314101B7
:1002D800101D6B2940010C081739D4000E083F394E
:1002E800D30005305406031D7C295308D2009029F9
:1002F80007305406031D83295308D1009029113073
:100308005406031D8A295308D00090291330540637
:10031800031D90295308CF004F084A018D00400162
:1003280050084A018E00400151084A018F004001DF
:1003380052084A0190004D010D15410110114D015F
:100348000D116B2941011A114D0196018D154101BD
:10035800101108304001E4008130E5008331272383
:100368008131F730E4008230E50083312723813181
:10037800DE30E4008230E500833127238131D20169
:100388000130D1000230D0000330CF004A010C18F0
:10039800CA2940014F084A018D00400150084A010E
:1003A8008E00400151084A018F00400152084A015D
:1003B80090000C18DD294D018D110D150D1141010D
:1003C80010111A15080020304001980099019A016F
:1003D8001730920093017F3094007D018C019601C3
:1003E800A00137308D00F0309700FF30A100203099
:1003F8008E009801A20117308F009901FF30A300E9
:10040800083090009A01A40105307C01BD00BE01AE
:100418000130D7000430D80001307B01910024302E
:1004280098002530990026309A0027309B00133019
:10043800A3007D019101920193019B019C019D0103
:10044800A501A601A70108007901A5010730A600AA
:100458000730A7002508F3390838A500A401A3012F
:10046800A201D530A100F330A505A401A301A20182
:10047800A101A0019F019E019D01FF309700FF305F
:100488009600940193019A0141018D1097100D1166
:1004980017117901A5011030920008004D0196014D
:1004A80081308D008E0101308F00013090000130C5
:1004B8009100023092000830930094019501970151
:1004C8008C308C0041011011B230F0000330F10083
:1004D8008331952341011A1508007408663EF60019
:1004E8000030753DF7007508F1007408F0007708D2
:1004F800F3007608F2008331762382318331A82312
:10050800823183319B238231003A031D852A83314E
:10051800A423080048304E01920090309000263005
:100528009100FF308E008F010030F0000030F100A4
:1005380083316C2382310030F0000030F1008331C8
:1005480062234001C801C90108004A018C131F3009
:10055800F4000030F5008231712206304A0195001E
:100568009901980197019601410113101D109310EC
:100578009D1013111D1193119D114A018C1708002C
:100588006008E3005F08E2006208840063088500F1
:1005980012000319DB2A5E08D6005D08D500623018
:1005A800D7006108D800813122218231C82ADD01B3
:1005B800DE01080020344F347034743469346D34EB
:1005C80069347A346134743469346F346E34203465
:1005D8006C346534763465346C343A3420343234CF
:1005E8000D340A34003420345234653476342E34D1
:1005F800203431342E3430342E3430343A342034EC
:1006080032343034323435343034373430343634AC
:100618000D340A3400348331802383318231A92296
:1006280083318131E7218331823152228331823112
:100638002822833182318E2283318331AC23833166
:100648008331582308006630E6000030DD00DE0004
:100658006508E0006408DF006630E1008231C422EA
:100668000800F10083314D238331003A0319362BFA
:100678007108F0008331A0230800101140014C08D4
:100688004D04031908004D088A004C080A008331FC
:100698000800F0014101101F562B4E01911E562BE8
:1006A8000130F0007008080041010C100B140030F4
:1006B800F0000030F10083318F23080070087104C6
:1006C8000319080071084001C5007008C40008003B
:1006D800700871040319080071084001C700700808
:1006E800C60008007308790197007208960071081F
:1006F8009400700893000800603045018D008F0158
:1007080091010530930092010800640080010131D5
:10071800890B8A2B003471084001CB007008CA008D
:10072800080071084001CD007008CC00080079016C
:10073800120E890C0139080070084E018D0008005E
:10074800191012139213080092171914121708009F
:0E0758008331AF2308007901901108000800DA
:020000040001F9
:0A000E008C3FFF3D9F3FFF3FFF3F87
:00000001FF
