:040000008031102813
:100008007E1480310B1F0E2841011A19101D0E286D
:100018008331B1237E10090080311228FC01FD01D3
:10002800203084000030850035308331F9237E107C
:10003800400181318C29183080150F180006A5144D
:10004800E9010A280E38343DAD00DA0040030A28D9
:10005800AC008A0D6018343DB000000100000000BB
:100068006200CA0CA000C60CA008050A7020C314C0
:100078000000000000001E0001000D1EA70B010477
:10008800AE02CA0D6018142940010C1481010C300D
:10009800E8010A280510343DAF00F0000000000018
:1000A800AF00EA0D6018A615A6340A0640130A2800
:1000B800000000000000142940010F1440138015AF
:1000C8000018000000000000000000000000000010
:1000D8000000003CE00900000000000000000000F3
:1000E800010101201F3CE1031F3CF0011F3EE0031A
:1000F8001F3EE1031F3C0000000000000000003824
:100108000000D73402340034003400340034103492
:10011800043400340034BD34033400340034003473
:100128000034003400340034003400340034003427
:100138000034003400340034003400340034003417
:100148000034003400340034003400340034003407
:100158000034DC340334D234033400340034003443
:10016800003449344F34453475343A3420345334E8
:10017800433443342D3445346D347534203450348D
:100188006C34753473342034513455344134443428
:100198002034523441344D342034503449344334BB
:1001A80031343634203466346F3472342034333486
:1001B800723464342D34453464342E340D340A34A6
:1001C800003441011A114D0196018D15410110119C
:1001D8004001D2010130D1000230D0000330CF00FD
:1001E8004A010C18F42840014F084A018D004001CB
:1001F80050084A018E00400151084A018F00400111
:1002080052084A019000B5304001E4008030E50012
:100218008331972380314030E4008330E500833117
:10022800972380312730E4008330E500833197231A
:1002380080318630E4008330E500833197238031B4
:100248009D30E4008230E50083319723803170309F
:10025800E4008330E500833197234D018D110D159E
:100268000D11410110111A150800740875040319BD
:10027800412974087504031D452972088331A52393
:1002880008007408860075088700493116000104C3
:1002980003196C2974088600750887004931403FA6
:1002A800F600413FF7007408860075088700423160
:1002B800403FF800413FF9007908803AFA00770892
:1002C800803A7A02031D6A29760878020318080022
:1002D8007408860075088700423174088400750820
:1002E8008500003FF600013FF700403F7607840095
:1002F800413F773D850072088000740886007508C4
:10030800870042310130810741310318810A080012
:100318008331582381318031E52081314101101D1D
:10032800922940010C081739D4000E081F39D30050
:1003380013305406031DA3295308CF00B7291130E1
:100348005406031DAA295308D000B72907305406BC
:10035800031DB1295308D100B72905305406031DE0
:10036800B7295308D2008C1EB7294D010D1540013D
:100378004F084A018D00400150084A018E00400193
:1003880051084A018F00400152084A01900041017A
:1003980010114D010D119229570886008701403F21
:1003A800D900413FDA00590884005A088500120034
:1003B800253A031DF929570886008701013081076E
:1003C80041310318810AC001C1010030CE00FF305D
:1003D800C200FF30C3004001570886008701013082
:1003E800810741310318810A0800570886008701F0
:1003F800403FD900413FDA00590884005A08850077
:100408000008DB00DC015B08F2005C08F30056081A
:10041800F5005508F400813139218131EF29400177
:100428009801990120309A003730920093015F308B
:1004380094007D018C019601A00137308D00F030C9
:100448009700FF30A1008E0198012030A2003730BC
:100458008F00F0309900DF30A300283090009A0117
:10046800A40105307C01BD00BE010130D700043075
:10047800D80001307B01A100243098002530990074
:1004880026309A0027309B002830A3007D01910177
:10049800920193019B019C019D01A501A601A70161
:1004A80008007901A5010730A6000730A700250834
:1004B800F3390838A500A401A301A201D530A10091
:1004C800F330A505A401A301A201A101A0019F0188
:1004D8009E019D01FF309700FF3096009401930123
:1004E8009A0141018D1097100D1117117901A5017D
:1004F8001030920008004D01960182308D008E0167
:1005080001308F00013090000130910001309200DD
:1005180093019401950197018C308C0041011011D1
:100528002230F0000430F1008431052441011A150D
:1005380008002034423441344E344B345F34303474
:1005480042345F345034523449344F34523449348D
:10055800543459345F344D344F34443445343A3488
:1005680020344F344E340D340A3400347408663E57
:10057800F6000030753DF7007508F1007408F000CA
:100588007708F3007608F2008331E623823184315C
:100598001824823184310B248231003A031DCE2A7B
:1005A80084311424080048304E01920090309000A5
:1005B80026309100FF308E008F010030F0000030AF
:1005C800F1008331DC2382310030F0000030F1008B
:1005D8008331D2234001C801C90108004A018C13A4
:1005E8001F30F4000030F5008231BA2206304A018B
:1005F80095009901980197019601410113101D106A
:1006080093109D1013111D1193119D114A018C1700
:1006180008006008E3005F08E200620884006308DD
:10062800850012000319242B5E08D6005D08D5004A
:100638006230D7006108D8008131D0218331112B75
:10064800DD01DE01080020344F347034743469341D
:100658006D3469347A346134743469346F346E3487
:1006680020346C346534763465346C343A34203450
:1006780032340D340A34003420345234653476343C
:100688002E34203431342E3431342E3430343A344C
:100698002034323430343234353431343134323435
:1006A80032340D340A3400348331F02383318231FB
:1006B800F222833182311322833182317F228331C6
:1006C8008231552283318231D722833184311C24EF
:1006D80083318331C82308002034423452345734DC
:1006E80045345F344334543452344C345F344D34DD
:1006F8004F34443445343A3420344F344E340D3476
:100708000A340034203446344134533454345F348A
:100718004D344F34443445343A3420344F344E3415
:100728000D340A3400346630E6000030DD00DE00A7
:100738006508E0006408DF006630E10083310D23BE
:100748000800F1008331BD238331003A0319A62B39
:100758007108F000843110240800101140014C0881
:100768004D04031908004D088A004C080A0083311B
:100778000800F0014101101FC62B4E01911EC62B27
:100788000130F0007008080041010C100B14003013
:10079800F0000030F1008331FF2308007008710475
:1007A8000319080071084001C5007008C40008005A
:1007B800700871040319080071084001C700700827
:1007C800C60008007308790197007208960071083E
:1007D8009400700893000800603045018D008F0177
:1007E80091010530930092010800640080010131F5
:1007F800890BFA2B003471084001CB007008CA003D
:10080800080071084001CD007008CC00080079018B
:10081800120E890C0139080070084E018D0008007D
:1008280019101213921308009217191412170800BE
:0E08380084311F240800790190110800080087
:020000040001F9
:0A000E008C3FFF3D9F3FFF3FFF3F87
:00000001FF
