:040000008031102813
:100008007E1480310B1F0E2841011A19101D0E286D
:1000180083319B237E10090080311228FC01FD01E9
:10002800203084000030850035308331E3237E1092
:1000380040018131C129183080150F180006A51418
:10004800E9010A280E38343DAD00DA0040030A28D9
:10005800AC008A0D6018343DB000000100000000BB
:100068006200CA0CA000C60CA008050A7020C314C0
:100078000000000000001E0001000D1EA70B010477
:10008800AE02CA0D6018142940010C1481010C300D
:10009800E8010A280510343DAF00F0000000000018
:1000A800AF00EA0D6018A615A6340A0640130A2800
:1000B800000000000000142940010F1440138015AF
:1000C8000018000000000000000000000000000010
:1000D8000000003CE00900000000000000000000F3
:1000E800010101201F3CE1031F3CF0011F3EE0031A
:1000F8001F3EE1031F3C0000000000000000003824
:100108000000EF3402340034003400340034FA3490
:10011800033400340034A73403340034003400348A
:100128000034003400340034003400340034003427
:100138000034003400340034003400340034003417
:100148000034003400340034003400340034003407
:100158000034C6340334BC3403340034003400346F
:10016800003449344F34453475343A3420345334E8
:10017800433443342D3445346D347534203450348D
:100188006C34753473342034503449344334313446
:100198003634203466346F347234203432346E345A
:1001A80064342D34453464342E340D340A34003428
:1001B800740875040319E42874087504031DE828F5
:1001C800720883318F230800740886007508870039
:1001D80049311600010403190F29740886007508AF
:1001E80087004931403FF600413FF7007408860018
:1001F800750887004231403FF800413FF90079080F
:10020800803AFA007708803A7A02031D0D297608A9
:1002180078020318080074088600750887004231C0
:100228007408840075088500003FF600013FF70058
:10023800403F76078400413F773D85007208800083
:100248007408860075088700423101308107413102
:100258000318810A080041011A114D0196018D15F4
:1002680041011011B5304001E4008030E5008331D0
:10027800812381316F30E4008230E50083318123AE
:1002880081313F30E4008330E500833181238131BF
:100298007030E4008330E500833181238131B5304B
:1002A800E4008230E500833181238131D2010130BD
:1002B800D1000230D0000330CF004A010C18612968
:1002C80040014F084A018D00400150084A018E0044
:1002D800400151084A018F00400152084A0190002C
:1002E8000C1874294D018D110D150D1141011011B6
:1002F8001A150800570886008701403FD900413F7A
:10030800DA00590884005A0885001200253A031DAE
:10031800A729570886008701013081074131031852
:10032800810AC001C1010030CE00FF30C200FF3099
:10033800C300400157088600870101308107413119
:100348000318810A0800570886008701403FD90032
:10035800413FDA00590884005A0885000008DB008C
:10036800DC015B08F2005C08F3005608F50055084C
:10037800F4008031DC2081319D298331582381317B
:1003880081312F2181314101101DC72940010C08FD
:100398001739D4000E083F39D30013305406031D13
:1003A800D8295308CF00EC2911305406031DDF2942
:1003B8005308D000EC2907305406031DE6295308DA
:1003C800D100EC2905305406031DEC295308D2004E
:1003D8004D010D1540014F084A018D00400150089C
:1003E8004A018E00400151084A018F00400152081D
:1003F8004A019000410110114D010D11C72940011A
:100408009801990120309A003730920093015F30AB
:1004180094007D018C019601A00137308D00F030E9
:100428009700FF30A1008E0198012030A2003730DC
:100438008F00F0309900DF30A300283090009A0137
:10044800A40105307C01BD00BE010130D700043095
:10045800D80001307B01A100243098002530990094
:1004680026309A0027309B001330A3007D019101AC
:10047800920193019B019C019D01A501A601A70181
:1004880008007901A5010730A6000730A700250854
:10049800F3390838A500A401A301A201D530A100B1
:1004A800F330A505A401A301A201A101A0019F01A8
:1004B8009E019D01FF309700FF3096009401930143
:1004C8009A0141018D1097100D1117117901A5019D
:1004D80010309200080020345234653476342E34BB
:1004E800203431342E3430342E3431343A342034FC
:1004F80032344D346234693474342034733475348E
:10050800703470346F34723474342C342034323490
:1005180030343234353430343934323437340D34BD
:100528000A3400344D01960181308D008E0101306E
:100538008F000130900001309100023092000830A5
:1005480093009401950197018C308C0041011011A2
:100558000C30F0000430F1008331EF2341011A150B
:1005680008002034423441344E344B345F34303444
:1005780042345F345034523449344F34523449345D
:10058800543459345F344D344F34443445343A3458
:1005980020344F344E340D340A3400347408663E27
:1005A800F6000030753DF7007508F1007408F0009A
:1005B8007708F3007608F2008331D0238231843142
:1005C800022482318331F5238231003A031DE62A61
:1005D8008331FE23080048304E019200903090008D
:1005E80026309100FF308E008F010030F00000307F
:1005F800F1008331C62382310030F0000030F10071
:100608008331BC234001C801C90108004A018C1389
:100618001F30F4000030F5008231D22206304A0142
:1006280095009901980197019601410113101D1039
:1006380093109D1013111D1193119D114A018C17D0
:1006480008006008E3005F08E200620884006308AD
:100658008500120003193C2B5E08D6005D08D50002
:100668006230D7006108D80081317E218331292B7F
:10067800DD01DE01080020344F34703474346934ED
:100688006D3469347A346134743469346F346E3457
:1006980020346C346534763465346C343A34203420
:1006A80032340D340A3400348331DA238331833110
:1006B8000A238331823103228331823196228331A6
:1006C8008231452283318231EF22833184310624FD
:1006D80083318331B2230800203446344134533403
:1006E80054345F344D344F34443445343A34203430
:1006F8004F344E340D340A3400346630E60000308E
:10070800DD00DE006508E0006408DF006630E10017
:10071800833125230800F1008331A7238331003A70
:100728000319902B7108F0008331FA230800101187
:1007380040014C084D04031908004D088A004C0874
:100748000A0083310800F0014101101FB02B4E014F
:10075800911EB02B0130F0007008080041010C1008
:100768000B140030F0000030F1008331E923080059
:10077800700871040319080071084001C500700869
:10078800C4000800700871040319080071084001CA
:10079800C7007008C600080073087901970072083E
:1007A80096007108940070089300080060304501B5
:1007B8008D008F01910105309300920108006400BB
:1007C80080010131890BE42B003471084001CB0012
:1007D8007008CA00080071084001CD007008CC00FC
:1007E80008007901120E890C0139080070084E01C1
:1007F8008D0008001910121392130800921719148B
:1008080012170800843109240800790190110800A2
:020818000800D6
:020000040001F9
:0A000E008C3FFF3D9F3FFF3FFF3F87
:00000001FF
