:0400000081EF00F09C
:10000800791379137913791340000B114000791390
:10001800EE12791379137913791379137913791304
:10002800791340004000400079137913791379134C
:100038007913791379137913791379137913BF1213
:10004800791379137913791340004000F811F010EF
:10005800791379137913400079137913EA11D510BC
:10006800F4127913791373137913791379137913B4
:100078007913791379137913400079137913791364
:100088007913791379137913791379137913791308
:1000980079137913791379134000791340004000DC
:1000A800FA1278127913741379137913791379136F
:1000B80079137913791379137913791379137913D8
:1000C80079137913791379137913791379137913C8
:1000D80079137913791379137913791379137913B8
:1000E8004000791379137513400040004000400028
:0E00F8007913791379137913FF007EEF22F04C
:1025000000FE4100000000000000C24D000000007D
:10251000564B00000000000000000000000000001A
:1025200000000000000000000000000000000000AB
:1025300000000000000000000000000000A04B00B0
:10254000884B00704B000000001C4B000000000096
:10255000000000000000000000000000000000007B
:10256000000000000000000000000000000000006B
:10257000000000844900000000000000000000226C
:102580004C00000000B44900000000000000000002
:1025900000304C000000000200000100024000007A
:1025A000000D0A494F45753A205343432D456D753B
:1025B0002053696D706C65782031352D6269742007
:1025C0004441430D0A00205265762E20312E302ED4
:1025D000323A20545950452D422032303234313075
:1025E00030360D0A00204F7074696D697A61746924
:0F25F0006F6E206C6576656C3A20320D0A000024
:102600007A51800B876F7A517A258E6F79BF8E81D0
:102610008E51D8B40DD08E29D8A408D0000E776F73
:10262000000E786F000E796F000E7A6F798F06D0EA
:10263000000E776F000E786F000E796F000E7A6FC4
:102640007E51800B871B7E517E258F6F7DBF8F81D2
:102650008F51D8B40DD08F29D8A408D0000E7B6F2D
:10266000000E7C6F000E7D6F000E7E6F7D8F06D09A
:10267000000E7B6F000E7C6F000E7D6F000E7E6F74
:102680007B517C117D117E11D8A417D0000E776F7D
:10269000000E786F000E796F000E7A6F800E79133E
:1026A0007F0E7A1387517A1377C577F578C578F559
:1026B00079C579F57AC57AF512008E51D8A409D07A
:1026C000000E776F000E786F000E796F000E7A6F34
:1026D00012008F518EC57FF5806B7F5F000E805B8F
:1026E0007F0E7F25886F000E8021896F77C583F567
:1026F00078C584F579C585F57AC586F5000E776FBE
:10270000000E786F000E796F000E7A6F000E8A6FE0
:10271000000E8B6F000E8C6F000E8D6F000E8F6F92
:1027200028D08F51D8B411D0D890833784378537CB
:102730008637D8907737783779377A378DBF778172
:10274000D8908A378B378C378D377B51835D7C519E
:1027500084597D5185597E518659D8A009D08D8DD7
:102760007B51835F7C51845B7D51855B7E51865BB1
:102770008F2B190E8F65D5D7835184118511861142
:10278000D8B411D08A810FD0D8907737783779377D
:102790007A378DBF7781D8908A378B378C378D37D2
:1027A0008807D8A0890779AFEFD7000E8F6F8DAF5C
:1027B00017D0FF0E8A157F6FFF0E8B15806FFF0EEF
:1027C0008C15816F7F0E8D15826F7F518011811165
:1027D0008211D8B403D0010E8F6F02D077B1FBD72E
:1027E0008F51D8B41FD0010E7727000E782379239C
:1027F0007A237AA117D077C57FF578C580F579C59A
:1028000081F57AC582F582358233813380337F3317
:102810007FC577F580C578F581C579F582C57AF5EC
:10282000884B892B89BF10D0895103E18829D8A012
:102830000BD0000E896F8869000E776F000E786FDD
:10284000000E796F000E7A6F89BF05D0895111E1B2
:102850008805D8B00ED0000E896F000E886F000E6C
:10286000776F000E786F000E796F000E7A6F000E92
:10287000876F88C58EF58EA102D0798F01D0799FA0
:10288000D8908E317A6F0ED72050800B2D6E20504D
:102890002024346E1FBE34803450D8B40DD0342878
:1028A000D8A408D0000E1D6E000E1E6E000E1F6E06
:1028B000000E206E1F8E06D0000E1D6E000E1E6EC6
:1028C000000E1F6E000E206E2450800B2D1A245017
:1028D0002424356E23BE35803550D8B40DD035282C
:1028E000D8A408D0000E216E000E226E000E236EBA
:1028F000000E246E238E06D0000E216E000E226E76
:10290000000E236E000E246E21502210231024107E
:10291000D8A417D0000E1D6E000E1E6E000E1F6E86
:10292000000E206E800E1F127F0E20122D502012DE
:102930001DC51DF51EC51EF51FC51FF520C520F5BB
:1029400012003450D8A409D0000E1D6E000E1E6E69
:10295000000E1F6E000E206E1200355034C525F596
:10296000266A255E000E265A7F0E25242E6E000E46
:1029700026202F6E1DC529F51EC52AF51FC52BF56E
:1029800020C52CF5000E1D6E000E1E6E000E1F6E73
:10299000000E206E000E306E000E316E000E326E94
:1029A000000E336E000E356E28D03550D8B411D0DD
:1029B000D89029362A362B362C36D8901D361E361E
:1029C0001F36203633BE1D80D89030363136323631
:1029D00033362150295C22502A5823502B5824503A
:1029E0002C58D8A009D0338C2150295E22502A5A65
:1029F00023502B5A24502C5A352A190E3564D5D71A
:102A000029502A102B102C10D8B411D030800FD0A0
:102A1000D8901D361E361F36203633BE1D80D89006
:102A200030363136323633362E06D8A02F061FAE5A
:102A3000EFD7000E356E33AE17D0FF0E3014256E73
:102A4000FF0E3114266EFF0E3214276E7F0E3314E4
:102A5000286E2550261027102810D8B403D0010E58
:102A6000356E02D01DB0FBD73550D8B41FD0010E43
:102A70001D26000E1E221F22202220A017D01DC5B9
:102A800025F51EC526F51FC527F520C528F52834D0
:102A9000283227322632253225C51DF526C51EF5DA
:102AA00027C51FF528C520F52E4A2F2A2FBE10D086
:102AB0002F5003E12E28D8A00BD0000E2F6E2E68C9
:102AC000000E1D6E000E1E6E000E1F6E000E206E9C
:102AD0002FBE05D02F5011E12E04D8B00ED0000E1D
:102AE0002F6E000E2E6E000E1D6E000E1E6E000E5E
:102AF0001F6E000E206E000E2D6E2EC534F534A014
:102B000002D01F8E01D01F9ED8903430206E0ED779
:102B1000200EC6610ED0C6511F0B9C6F9D6B800EA0
:102B20009C25D96E060E9D21DA6EC551800FDF6E91
:102B30001200400EC6610ED0C6511F0B9C6F9D6BDC
:102B4000A00E9C25D96E060E9D21DA6EC551800F10
:102B5000DF6E1200600EC6610ED0C6511F0B9C6F57
:102B60009D6B600E9C25D96E060E9D21DA6EC551B7
:102B7000800FDF6E1200800EC6611BD0800EC5274D
:102B8000C6511F0B9C6F9D6B400E9C25D96E060E87
:102B90009D21DA6EC5C5DFF4C6511F0B9C6F9D6B7E
:102BA000200E9C25D96E060E9D21DA6EC5C5DFF478
:102BB0001200800EC619D8A40ED0000ECF159C6F3F
:102BC0000F0ED0159D6FC5519C11CF6F9D51D06FC9
:102BD00084EC1AF01200810EC619D8A40FD0C5518A
:102BE0009D6F9C6BFF0ECF159E6F000ED0159F6FD3
:102BF0009C519E11CF6F9D519F11E9D7820EC6192E
:102C0000D8A40ED0000ECD159C6F0F0ECE159D6F63
:102C1000C5519C11CD6F9D51CE6F1DEC1AF0120065
:102C2000830EC619D8A40FD0C5519D6F9C6BFF0EA3
:102C3000CD159E6F000ECE159F6F9C519E11CD6FCE
:102C40009D519F11E9D7840EC619D8A40ED0000E4D
:102C5000CB159C6F0F0ECC159D6FC5519C11CB6F82
:102C60009D51CC6FB6EC19F01200850EC619D8A490
:102C70000FD0C5519D6F9C6BFF0ECB159E6F000E44
:102C8000CC159F6F9C519E11CB6F9D519F11E9D721
:102C9000860EC619D8A40ED0000EC9159C6F0F0E53
:102CA000CA159D6FC5519C11C96F9D51CA6F93EC98
:102CB0001DF01200870EC619D8A40FD0C5519D6F04
:102CC0009C6BFF0EC9159E6F000ECA159F6F9C511D
:102CD0009E11C96F9D519F11E9D7880EC619D8A4BE
:102CE0000ED0000EC7159C6F0F0EC8159D6FC551F5
:102CF0009C11C76F9D51C86F37EC1DF01200890EF3
:102D0000C619D8A40FD0C5519D6F9C6BFF0EC71577
:102D10009E6F000EC8159F6F9C519E11C76F9D51ED
:102D20009F11E9D78A0EC619D8A403D0C5C5C4F52A
:102D300012008B0EC619D8A403D0C5C5C3F5120066
:102D40008C0EC619D8A403D0C5C5C2F512008D0ECD
:102D5000C619D8A403D0C5C5C1F512008E0EC61978
:102D6000D8A403D0C5C5C0F512008F0EC619D8A4CB
:102D700003D0C5EC20F01200DF0EC6651200C5C5F9
:102D8000BFF51200200EC6610ED0C6511F0B606F3A
:102D9000616B800E6025D96E060E6121DA6EC55119
:102DA000800FDF6E1200400EC6610ED0C6511F0BA1
:102DB000606F616BA00E6025D96E060E6121DA6E20
:102DC000C551800FDF6E1200600EC6610ED0C65175
:102DD0001F0B606F616B600E6025D96E060E61215E
:102DE000DA6EC551800FDF6E1200800EC6611BD0F7
:102DF000800EC527C6511F0B606F616B400E6025AA
:102E0000D96E060E6121DA6EC5C5DFF4C6511F0BFF
:102E1000606F616B200E6025D96E060E6121DA6E3F
:102E2000C5C5DFF41200800EC619D8A40ED0000E5E
:102E3000CF15606F0F0ED015616FC5516011CF6F48
:102E40006151D06FB5EC1BF01200810EC619D8A4E9
:102E50000FD0C551616F606BFF0ECF15626F000E12
:102E6000D015636F60516211CF6F61516311E9D763
:102E7000820EC619D8A40ED0000ECD15606F0F0EAD
:102E8000CE15616FC5516011CD6F6151CE6F50ECA1
:102E90001BF01200830EC619D8A40FD0C551616F64
:102EA000606BFF0ECD15626F000ECE15636F605123
:102EB0006211CD6F61516311E9D7840EC619D8A490
:102EC0000ED0000ECB15606F0F0ECC15616FC55183
:102ED0006011CB6F6151CC6FEBEC1AF01200850ED4
:102EE000C619D8A40FD0C551616F606BFF0ECB150A
:102EF000626F000ECC15636F60516211CB6F615130
:102F00006311E9D7860EC619D8A40ED0000EC915D4
:102F1000606F0F0ECA15616FC5516011C96F6151A5
:102F2000CA6F4AEC1EF01200870EC619D8A40FD043
:102F3000C551616F606BFF0EC915626F000ECA1537
:102F4000636F60516211C96F61516311E9D7880ED7
:102F5000C619D8A40ED0000EC715606F0F0EC81585
:102F6000616FC5516011C76F6151C86FEFEC1DF003
:102F70001200890EC619D8A40FD0C551616F606BBD
:102F8000FF0EC715626F000EC815636F60516211A6
:102F9000C76F61516311E9D78A0EC619D8A403D04F
:102FA000C5C5C4F512008B0EC619D8A403D0C5C57B
:102FB000C3F512008C0EC619D8A403D0C5C5C2F53E
:102FC00012008D0EC619D8A403D0C5C5C1F51200D4
:102FD0008E0EC619D8A403D0C5C5C0F512008F0E39
:102FE000C619D8A403D039EC21F01200DF0EC66553
:102FF0001200C5C5BFF51200716F05017151D8A44B
:103000006CAF1AD069C56DF56AC56EF56BC56FF505
:103010006CC570F56D1F6E1F6F1F701F6D2B000E3E
:103020006E236F2370236DC573F56EC574F56FC580
:1030300075F570C576F508D069C573F56AC574F580
:103040006BC575F56CC576F569516A116B116C111C
:10305000D8A409D0000E696F000E6A6F000E6B6F66
:10306000000E6C6F1200960E726F06D0722BD89005
:103070007633753374337333000E73156D6F000E32
:1030800074156E6F000E75156F6FFE0E7615706FEE
:103090006D516E116F117011D8B40DD0E7D7722B2E
:1030A000010E7327000E742375237623D890763390
:1030B000753374337333000E73156D6F000E741512
:1030C0006E6F000E75156F6FFF0E7615706F6D5178
:1030D0006E116F117011D8B407D0E1D77207D89074
:1030E000733774377537763775BF03D0020E726148
:1030F000F5D772A1759FD890723372C56DF56E6B5E
:103100006F6B706B6DC570F56F6B6E6B6D6B6D512A
:1031100073136E5174136F5175137051761371518F
:10312000D8A46CAF01D0768F73C569F574C56AF504
:1031300075C56BF576C56CF51200176E1750D8A4DF
:1031400012AE1AD00FC513F510C514F511C515F53B
:1031500012C516F5131E141E151E161E132A000E78
:1031600014221522162213C519F514C51AF515C512
:103170001BF516C51CF508D00FC519F510C51AF5B5
:1031800011C51BF512C51CF50F50101011101210AF
:10319000D8A409D0000E0F6E000E106E000E116E36
:1031A000000E126E1200960E186E06D0182AD890D5
:1031B0001C321B321A321932000E1914136E000E13
:1031C0001A14146E000E1B14156EFE0E1C14166ECF
:1031D0001350141015101610D8B40DD0E7D7182AB4
:1031E000010E1926000E1A221B221C22D8901C3216
:1031F0001B321A321932000E1914136E000E1A14F3
:10320000146E000E1B14156EFF0E1C14166E135058
:10321000141015101610D8B407D0E1D71806D8909E
:1032200019361A361B361C361BBE03D0020E186028
:10323000F5D718A01B9ED890183218C513F5146A3C
:10324000156A166A13C516F5156A146A136A1350BF
:10325000191214501A1215501B1216501C12175026
:10326000D8A412AE01D01C8E19C50FF51AC510F5E1
:103270001BC511F51CC512F51200000EBE6E000E26
:10328000BF6E000EC06E010EC16E040EC26EC66827
:10329000C768C868E40EC96E0B0ECA6E000E040142
:1032A000006F000E086F000E106F000E186F000EFA
:1032B000206F0169096911691969070E216F000EF4
:1032C000026F000E0A6F000E126F100E1A6F000EC2
:1032D000226F000E036F000E0B6F000E136F000EB7
:1032E0001B6F030E236F000E046F000E0C6F000E99
:1032F000146F0F0E1C6F0F0E246F000E0201896FEA
:10330000000E886F000E876F000E866F040E616FCF
:10331000050E626F060E656F070E666F1D0E636FFA
:103320001F0E646F230E1C6F040E1D6F350E1A6F77
:103330001A0E6D6F340E1B6F000E0401056F000E28
:10334000066F000E076F000E0D6F000E0E6F000E61
:103350000F6F000E156F000E166F000E176F000E28
:10336000256F000E266F000E276F1200010ECB2571
:103370009A6F000ECC219B6F9AC569F59BC56AF5C3
:103380006B6B6C6B000EFCEC17F069C57BF56AC5C6
:103390007CF56BC57DF56CC57EF5640E776F7A0E96
:1033A000786F5A0E796F4A0E7A6F00EC13F077C57A
:1033B000C0F678C5C1F679C5C2F67AC5C3F6000E67
:1033C0007B6F500E7C6F430E7D6F410E7E6FC0C6CB
:1033D00077F5C1C678F5C2C679F5C3C67AF500ECB3
:1033E00013F077C590F578C591F579C592F57AC552
:1033F00093F57DEC1CF090C5C4F691C5C5F692C559
:10340000C6F693C5C7F60401569FC4C653F4060119
:10341000C551C46FC651C56FC751C66FC76BC4C60F
:1034200054F4C551C46FC651C56FC751C66FC76B41
:10343000C4C655F40401568F1200010ECD259A6FB3
:10344000000ECE219B6F9AC569F59BC56AF56B6B23
:103450006C6B000EFCEC17F069C57BF56AC57CF55A
:103460006BC57DF56CC57EF5640E776F7A0E786F4F
:103470005A0E796F4A0E7A6F00EC13F077C5C0F6DA
:1034800078C5C1F679C5C2F67AC5C3F6000E7B6F62
:10349000500E7C6F430E7D6F410E7E6FC0C677F578
:1034A000C1C678F5C2C679F5C3C67AF500EC13F04B
:1034B00077C590F578C591F579C592F57AC593F5FC
:1034C0007DEC1CF090C5C4F691C5C5F692C5C6F654
:1034D00093C5C7F604014E9FC4C64BF40601C551FF
:1034E000C46FC651C56FC751C66FC76BC4C64CF415
:1034F000C551C46FC651C56FC751C66FC76BC4C62F
:103500004DF404014E8F1200010ECF259A6F000E6C
:10351000D0219B6F9AC569F59BC56AF56B6B6C6B87
:10352000000EFCEC17F069C57BF56AC57CF56BC530
:103530007DF56CC57EF5640E776F7A0E786F5A0E46
:10354000796F4A0E7A6F00EC13F077C5C0F678C534
:10355000C1F679C5C2F67AC5C3F6000E7B6F500E70
:103560007C6F430E7D6F410E7E6FC0C677F5C1C67E
:1035700078F5C2C679F5C3C67AF500EC13F077C5C5
:1035800090F578C591F579C592F57AC593F57DECFE
:103590001CF090C5C4F691C5C5F692C5C6F693C594
:1035A000C7F60401469FC4C643F40601C551C46F63
:1035B000C651C56FC751C66FC76BC4C644F4C55169
:1035C000C46FC651C56FC751C66FC76BC4C645F43B
:1035D0000401468F1200010ECB25406E000ECC2157
:1035E000416E40C50FF541C510F5116A126A000E13
:1035F0009DEC18F00FC521F510C522F511C523F576
:1036000012C524F5640E1D6E7A0E1E6E5A0E1F6EC4
:103610004A0E206E44EC14F01DC542F51EC543F55C
:103620001FC544F520C545F5000E216E500E226ED3
:10363000430E236E410E246E42C51DF543C51EF593
:1036400044C51FF545C520F544EC14F01DC536F5FD
:103650001EC537F51FC538F520C539F5DAEC1CF065
:1036600036C546F537C547F538C548F539C549F576
:103670000401569F46C553F44750466E4850476E66
:103680004950486E496A46C554F44750466E485002
:10369000476E4950486E496A46C555F4568F120028
:1036A000010ECD25406E000ECE21416E40C50FF5B6
:1036B00041C510F5116A126A000E9DEC18F00FC595
:1036C00021F510C522F511C523F512C524F5640EA8
:1036D0001D6E7A0E1E6E5A0E1F6E4A0E206E44EC40
:1036E00014F01DC542F51EC543F51FC544F520C5A0
:1036F00045F5000E216E500E226E430E236E410ED4
:10370000246E42C51DF543C51EF544C51FF545C5CC
:1037100020F544EC14F01DC536F51EC537F51FC560
:1037200038F520C539F5DAEC1CF036C546F537C555
:1037300047F538C548F539C549F504014E9F46C5DA
:103740004BF44750466E4850476E4950486E496AA0
:1037500046C54CF44750466E4850476E4950486E37
:10376000496A46C54DF44E8F1200010ECF25406EBA
:10377000000ED021416E40C50FF541C510F5116A0C
:10378000126A000E9DEC18F00FC521F510C522F548
:1037900011C523F512C524F5640E1D6E7A0E1E6E3A
:1037A0005A0E1F6E4A0E206E44EC14F01DC542F5F1
:1037B0001EC543F51FC544F520C545F5000E216E15
:1037C000500E226E430E236E410E246E42C51DF52F
:1037D00043C51EF544C51FF545C520F544EC14F05E
:1037E0001DC536F51EC537F51FC538F520C539F599
:1037F000DAEC1CF036C546F537C547F538C548F54F
:1038000039C549F50401469F46C543F44750466E05
:103810004850476E4950486E496A46C544F447507F
:10382000466E4850476E4950486E496A46C545F451
:10383000468F12009E9A000ED56FD787AE9A000E63
:103840004F6EA892040ED56FD785B892D2B004D02F
:10385000010E0501BD6F06D0000E0501BD6F000110
:10386000D795A882020E0001916FC40E926F020ECE
:10387000936F010E966F000E996F360E0201196F4D
:10388000C990C994000E0001956F000E906F000E54
:103890008F6FD2B202D0100E01D0300E0501BC6F76
:1038A000D2940001918F020E8F6F400E8E6F000E2A
:1038B0008E6FA10E0501806F4BEC25F0C60E806F58
:1038C0004BEC25F0E50E806F4BEC25F0000EBB6F46
:1038D000310E0301196FB19EA18E1A8F040E236F52
:1038E000248F000E4F6E000E0001D56FD797D7853D
:1038F000D795AE9A9E8AD68E120092359335996FDF
:103900009951D8A409D0000E906F000E916F000E4F
:10391000926F000E936F120090C594F591C595F5C6
:1039200092C596F593C597F5200E05D0D89097339C
:10393000963395339433E82EF9D79451986F928F3C
:10394000FF0E9017FF0E9117FF0E9217000E9317A0
:10395000960E995F99AF0DD09951800A970FD8A014
:10396000D2D7D8909333923391339033993FF9D78C
:103970000DD01F0E996507D0C6D7D89090379137D4
:103980009237933799079951D8A4F7D79851D8B45B
:1039900008D0931F921F911F906D000E91239223C8
:1039A000932390C590F591C591F592C592F593C575
:1039B00093F51200383439343F6E3F50D8A409D003
:1039C000000E366E000E376E000E386E000E396E29
:1039D000120036C53AF537C53BF538C53CF539C553
:1039E0003DF5200E05D0D8903D323C323B323A3284
:1039F000E82EF9D73A503E6E388EFF0E3616FF0E7F
:103A00003716FF0E3816000E3916960E3F5E3FAE83
:103A10000DD03F50800A970FD8A0D2D7D890393216
:103A20003832373236323F3EF9D70DD01F0E3F6461
:103A300007D0C6D7D89036363736383639363F06AF
:103A40003F50D8A4F7D73E50D8B408D0391E381EFE
:103A5000371E366C000E37223822392236C536F52D
:103A600037C537F538C538F539C539F51200010EB7
:103A7000C7259A6F000EC8219B6F9AC569F59BC533
:103A80006AF56B6B6C6B000EFCEC17F069C57BF58F
:103A90006AC57CF56BC57DF56CC57EF5640E776FE8
:103AA0007A0E786F5A0E796F4A0E7A6F00EC13F027
:103AB00077C590F578C591F579C592F57AC593F5F6
:103AC0007DEC1CF090C5C0F691C5C1F692C5C2F65A
:103AD00093C5C3F6000E696F240E6A6FF40E6B6F08
:103AE000000E6C6FC0C66DF5C1C66EF5C2C66FF52F
:103AF000C3C670F587EC1FF069C5C4F66AC5C5F684
:103B00006BC5C6F66CC5C7F6789EC4C672F40601CE
:103B1000C551C46FC651C56FC751C66FC76BC4C608
:103B200073F4788E1200010EC9259A6F000ECA2117
:103B30009B6F9AC569F59BC56AF56B6B6C6B000E44
:103B4000FCEC17F069C57BF56AC57CF56BC57DF5A6
:103B50006CC57EF5640E776F7A0E786F5A0E796FAA
:103B60004A0E7A6F00EC13F077C590F578C591F5A1
:103B700079C592F57AC593F57DEC1CF090C5C0F639
:103B800091C5C1F692C5C2F693C5C3F6000E696F22
:103B9000240E6A6FF40E6B6F000E6C6FC0C66DF56D
:103BA000C1C66EF5C2C66FF5C3C670F587EC1FF0CF
:103BB00069C5C4F66AC5C5F66BC5C6F66CC5C7F659
:103BC000699EC4C663F40601C551C46FC651C56F72
:103BD000C751C66FC76BC4C664F4698E1200010E6C
:103BE000C725406E000EC821416E40C50FF541C586
:103BF00010F5116A126A000E9DEC18F00FC521F540
:103C000010C522F511C523F512C524F5640E1D6EED
:103C10007A0E1E6E5A0E1F6E4A0E206E44EC14F081
:103C20001DC536F51EC537F51FC538F520C539F554
:103C3000DAEC1CF036C542F537C543F538C544F516
:103C400039C545F5000E0F6E240E106EF40E116E80
:103C5000000E126E42C513F543C514F544C515F5A3
:103C600045C516F509EC20F00FC546F510C547F51A
:103C700011C548F512C549F5789E46C572F44750FE
:103C8000466E4850476E4950486E496A46C573F4BF
:103C9000788E1200010EC925406E000ECA21416EB9
:103CA00040C50FF541C510F5116A126A000E9DEC72
:103CB00018F00FC521F510C522F511C523F512C561
:103CC00024F5640E1D6E7A0E1E6E5A0E1F6E4A0E7D
:103CD000206E44EC14F01DC536F51EC537F51FC522
:103CE00038F520C539F5DAEC1CF036C542F537C594
:103CF00043F538C544F539C545F5000E0F6E240E61
:103D0000106EF40E116E000E126E42C513F543C50F
:103D100014F544C515F545C516F509EC20F00FC599
:103D200046F510C547F511C548F512C549F5699E18
:103D300046C563F44750466E4850476E4950486E3A
:103D4000496A46C564F4698E12006D516E11D8B48B
:103D500004D06D516E11D8A404D06B5100EC26F044
:103D6000120020EE0AF06D51D9266E51DA22DE5093
:103D7000DE10D8B416D020EE0AF06D51D9266E515F
:103D8000DA2210EE03F06D51E1266E51E222DE5090
:103D9000E65CE650800A736FDE50800A7359D8B033
:103DA000120020EE03F06D51D9266E51DA22DEC4E6
:103DB0006FF5DDC470F56DC5D9F46EC5DAF4DEC4F7
:103DC00071F5DDC472F56F517125D96E7051722194
:103DD000DA6E6BC5DFF420EE03F06D51D9266E511B
:103DE000DA22DE2A000EDD221200000E0501676FC6
:103DF000000E666FC4516627000E6723C351662705
:103E0000000E6723C2516627000E6723C151662743
:103E1000000E6723C0516627000E672366514B08CA
:103E2000666F6751D8A0E82A0008676F070ED89020
:103E300066376737E82EFBD7D451C403F3C4B6F511
:103E4000F4C4B7F5D551C303F350B627F450B723E4
:103E5000D351C203F350B627F450B723D251C10354
:103E6000F350B627F450B723D151C003F350B6270F
:103E7000F450B7236651B6276751B7231200200EBE
:103E80000501C6610ED0C6511F0B0F6E106A800E61
:103E90000F24D96E060E1020DA6EDF50800FC06E30
:103EA0001200400EC6610ED0C6511F0B0F6E106A75
:103EB000A00E0F24D96E060E1020DA6EDF50800F90
:103EC000C06E1200600EC6610ED0C6511F0B0F6E81
:103ED000106A600E0F24D96E060E1020DA6EDF50C5
:103EE000800FC06E1200800EC6610ED0C6511F0B2F
:103EF0000F6E106A400E0F24D96E060E1020DA6E77
:103F0000DF50800FC06E1200BFC5C0F41200000E5B
:103F1000716F000E726F000E736F000E746F6D5133
:103F20006E116F117011D8B42AD0010E756F06D0C2
:103F3000D8906D376E376F377037752B70AFF8D7F5
:103F4000D89071377237733774376D51695D6E5120
:103F50006A596F516B5970516C59D8A009D06D5185
:103F6000695F6E516A5B6F516B5B70516C5B718105
:103F7000D89070336F336E336D33752FE1D771C5C1
:103F800069F572C56AF573C56BF574C56CF51200F9
:103F9000D68A000ED6BE010E6C6FD69E550E040159
:103FA000596FAA0E596F5991000E5F6F000E5E6F28
:103FB000080E5D6F550E596FAA0E596F5981050194
:103FC0006CB102D0D69E01D0D68E0301628B658F74
:103FD0006C83AF90D680E60E0501696F4D0E6A6F57
:103FE000000E6B6F5EEC26F0B490D682E80E696F1F
:103FF0004D0E6A6F000E6B6F57EC26F0B890D684AA
:10400000EA0E696F4D0E6A6F000E6B6F50EC26F072
:104010001200000E176E000E186E000E196E000EC4
:104020001A6E1350141015101610D8B42AD0010EA1
:104030001B6E06D0D89013361436153616361B2A4A
:1040400016AEF8D7D8901736183619361A361350D8
:104050000F5C145010581550115816501258D8A013
:1040600009D013500F5E1450105A1550115A1650A3
:10407000125A1780D89016321532143213321B2E72
:10408000E1D717C50FF518C510F519C511F51AC5F3
:1040900012F51200000E606E020E616E000E626E6E
:1040A0006F0E636E040E646E030E656E000E666E18
:1040B000000E676E000E686E000E6A6E380E6B6E34
:1040C000020E6C6E380E6D6E020E6E6EB29CB29E5B
:1040D00067906792A29EA29CE00E0501696F4D0E4B
:1040E0006A6F000E6B6F42EC26F0DE0E696F4D0EAC
:1040F0006A6F000E6B6F3BEC26F0E20E696F4D0E9F
:104100006A6F000E6B6F49EC26F0000E696E1200AC
:10411000000E6F6E020E706E000E716E7F0E726E6C
:104120003E0E736E030E746E000E756E000E766E8C
:10413000000E776E000E796E400E7A6E1F0E7B6E4B
:10414000400E7C6E1F0E7D6EB39CB39E7690769271
:10415000A39EA39CDA0E696F4D0E6A6F000E6B6F03
:104160002DEC26F0D80E696F4D0E6A6F000E6B6F46
:1041700026EC26F0DC0E696F4D0E6A6F000E6B6F39
:1041800034EC26F0000E786E1200C5A105D0C3EC09
:1041900026F00401468F04D08BEC26F00401469FE4
:1041A0000501C5A305D0BEEC26F004014E8F04D056
:1041B00085EC26F004014E9F0501C5A505D0B9EC9C
:1041C00026F00401568F04D07FEC26F00401569FA0
:1041D0000501C5A704D0B4EC26F0698E03D079ECB4
:1041E00026F0699E0501C5A904D0AFEC26F0788EB3
:1041F00003D073EC26F0789EC5C550F51200000E72
:104200000201B46F000EB66F000EB86F000EBA6FE9
:10421000000EBC6FB00EBE6F800EBF6F000EC06F81
:10422000C169010EC26F2E0EC36F000EC46F800EE7
:10423000C56F000EC66F000E0501696F000E6A6F34
:10424000000E6B6FD0EC25F0000E696F000E6A6FE8
:10425000000E6B6FC4EC25F0000E696F000E6A6FE4
:10426000000E6B6FB8EC25F0000EB96F000EB86F42
:104270001200C5A105D0DCEC26F00401468F04D065
:10428000A9EC26F00401469F0501C5A305D0D7EC93
:1042900026F004014E8F04D0A3EC26F004014E9FBB
:1042A0000501C5A505D0D2EC26F00401568F04D037
:1042B0009DEC26F00401569F0501C5A704D0CDEC66
:1042C00026F0698E03D097EC26F0699E0501C5A9FA
:1042D00004D0C8EC26F0788E03D091EC26F0789EBE
:1042E000C5C550F5120076C5D9F477C5DAF4DFC438
:1042F000F6F4250EF76E000EF86E0800F550250A4C
:10430000D8A413D076C5D9F477C5DAF4DF2A000E25
:10431000B36F000EB26FB2C5BAF5B469B56976C5B0
:10432000D9F477C5DAF4DF2A120076C5D9F477C557
:10433000DAF4DFC4F6F4250EF76E000EF86E08000E
:10434000F5506B6F6C6B74C56DF575C56EF5A5ECAE
:104350001EF0E5D7FAC401F5FBC402F5B39E77B0B1
:1043600076A013D076900501EB51EC11ED11D8B485
:1043700022D001D820D00500FA6EEB51FD6EEC5131
:10438000FE6EED51FF6EFA50120077B276A213D096
:1043900076920501E851E911EA11D8B40CD001D8A0
:1043A0000AD00500FA6EE851FD6EE951FE6EEA5141
:1043B000FF6EFA50120002C5FBF401C5FAF41100B9
:1043C000FAC405F5FBC406F5B29E68B067A013D029
:1043D00067900501E251E311E411D8B422D001D86D
:1043E00020D00500FA6EE251FD6EE351FE6EE451FD
:1043F000FF6EFA50120068B267A213D067920501EF
:10440000DF51E011E111D8B40CD001D80AD0050079
:10441000FA6EDF51FD6EE051FE6EE151FF6EFA5013
:10442000120006C5FBF405C5FAF41100D1AC1AD090
:10443000CFC465F50001D785D0C464F5AE9AD79591
:10444000000E4E24D96EDA6A080EDA2265C5DFF452
:10445000000E4E24D96EDA6A070EDA2264C5DFF444
:104460004E2A11004F04D8A411D0CFC4C6F5000EB7
:10447000C86E0CEC24F03FEC1FF00001D785D1AAE8
:10448000FED7C868AE9A0001D79511000001D78504
:10449000AE9AD79511009DEC25F03DEC19F067EC34
:1044A00023F05DEC24F0A9EC24F090EC24F08CECEB
:1044B00023F043EC24F077EC24F042EC23F01DECE5
:1044C00023F0F8EC22F0D3EC22F0AEEC22F003EC77
:1044D00025F06DEC25F05CEC25F04AEC20F088EC42
:1044E00020F08EEC25F0DAEC24F0C2EC24F0FFECA6
:1044F00020F0C8EC1FF01FEC26F0120002EE00F0D6
:1045000010EE00F1EE6AE550E150FCE1E250FAE114
:1045100001EE00F310EE00F1EE6AE550E150FCE12F
:10452000E250FAE101EE00F2C00EEE6AE806FDE1AB
:1045300001EEA0F1360EEE6AE806FDE101EE4BF168
:10454000070EEE6AE806FDE10401080E5D6F000E3D
:104550005E6F000E5F6F00010AEF26F0040EE86F39
:10456000200EF96F060EFA6F000EFB6F050EF16F4D
:10457000D10EF06F020EFD6F000EF86F200EF76F78
:10458000000EEF6F010EEE6F2E0EFF6F000EFE6F2E
:10459000BA9ABA98BA9EBA9CAA9AAA98AA9EAA9CB3
:1045A000800EFC6F1200030EE86F400EF96F060ECE
:1045B000FA6F000EFB6F050EF16FD20EF06F020E58
:1045C000FD6F000EF86F200EF76F000EEF6F010EFB
:1045D000EE6F260EFF6F000EFE6FB99AB998B99E66
:1045E000B99CA99AA998A99EA99C800EFC6F12005B
:1045F000020EE86F600EF96F060EFA6F000EFB6F89
:10460000050EF16FD30EF06F020EFD6F000EF86F06
:10461000200EF76F000EEF6F010EEE6F730EFF6F3F
:10462000000EFE6FB89AB898B89EB89CA89AA89841
:10463000A89EA89C800EFC6F1200010EE86FA00ED1
:10464000F96F060EFA6F000EFB6F050EF16FD50EB7
:10465000F06F020EFD6F000EF86F200EF76F000E68
:10466000EF6F010EEE6F530EFF6F000EFE6FB49AE8
:10467000B498B49EB49CA49AA498A49EA49C800EC2
:10468000FC6F1200000EE86F800EF96F060EFA6FD5
:10469000000EFB6F050EF16FD40EF06F020EFD6F72
:1046A000000EF86F200EF76F000EEF6F010EEE6F29
:1046B000330EFF6F000EFE6FB09AB098B09EB09CA4
:1046C000A09AA098A09EA09C800EFC6F1200000EE5
:1046D0000001D56F800ED76F020ED86F340ED96FE0
:1046E000340EDA6F340EDB6F010EDC6F080EDD6FF7
:1046F000000EDE6F000EDF6F000ED46F8C0ED66FD3
:10470000AE9A000E0501696F000E6A6F000E6B6FA6
:104710006CEC26F09E8A1200040ED56F800ED76FC7
:10472000020ED86F380ED96F380EDA6F380EDB6F85
:10473000010EDC6F080EDD6F000EDE6F000EDF6F06
:10474000000ED46F8C0ED66FB892000E0501696F03
:10475000000E6A6F000E6B6F65EC26F0A8821200E7
:104760007CC57FF50FD07AC574F57BC575F57F0ED6
:104770000501766F050E776F7DC578F57EC579F5F5
:1047800073EC21F07FC5F6F4250EF76E000EF86E7F
:104790000800F5500009D8A4E6D7000E05017B6F8C
:0647A000000E7A6F12000A
:1047A800FAC403F5FBC404F5B39C0501E551E61111
:1047B800E711D8B40CD001D80AD00500FA6EE5513B
:1047C800FD6EE651FE6EE751FF6EFA50120004C509
:1047D800FBF403C5FAF41100FAC407F5FBC408F5A5
:1047E800B29C0501DC51DD11DE11D8B40CD001D822
:1047F8000AD00500FA6EDC51FD6EDD51FE6EDE5109
:10480800FF6EFA50120008C5FBF407C5FAF4110050
:10481800BEC54AF514D0000E4A24D96EDA6A080ECD
:10482800DA22DF500501C66F000E4A24D96EDA6A13
:10483800070EDA22DF50C56FC2EC16F04A2A4A503A
:104848004E18D8B41200E7D714D0000EBE25D96E82
:10485800DA6A080EDA22DF50C66F000EBE25D96E5E
:10486800DA6A070EDA22DF50C56F88EC15F0050109
:10487800BE2B0501BE514E18D8B41200E6D7050E5E
:104888000001D56F0C0ED76F350ED86F030ED96F98
:10489800030EDA6F030EDB6F020EDC6F040EDD6FA2
:1048A800000EDE6F000EDF6F000ED46F820ED66F23
:1048B8001200010E0001D56F0C0ED76F350ED86FA0
:1048C800030ED96F030EDA6F030EDB6F020EDC6F77
:1048D800080EDD6F000EDE6F000EDF6F000ED46F66
:1048E800820ED66F1200000EB46F070EB56F070E5A
:1048F800B66F070EB76F070EB86F070EB96F070EC2
:10490800BA6F070EBB6F070EBE6F070EBF6F000EA4
:10491800F46E000EF36E1200030ED56F0C0ED76FF7
:10492800330ED86F370ED96F330EDA6F330EDB6F55
:10493800020EDC6F080EDD6F000EDE6F000EDF6FFB
:10494800000ED46F820ED66F1200020ED56F000EC5
:10495800D76F000ED86F010ED96F040EDA6F050EEF
:10496800DB6F020EDC6F040EDD6F100EDE6F800E43
:10497800DF6F000ED46F820ED66F1200030E266F03
:10498800000E256F000E276F0F0E236F000E226F8B
:10499800000E0501696F000E6A6F000E6B6F11EC57
:1049A80026F0B196000E0301246F12002C0E0301AD
:1049B800196F000E186F740E1B6F000E0501696FDA
:1049C800000E6A6F000E6B6F18EC26F0B19EA18E78
:1049D800000E03011A6F1200040E0001D56FD1AC4E
:1049E80008D03F0ED018D8A402D0010E01D0000E76
:1049F8004F6ED785B892D795000ED56F1100080E67
:104A08000401476F000E426F000E416F000E406FA9
:104A18000E0E456F140E446F7B0E436F000E466FEB
:104A280012000501AF51B011B111D8B4120001D86C
:104A380012000500FA6EAF51FD6EB051FE6EB15115
:104A4800FF6EFA5012000501AC51AD11AE11D8B489
:104A5800120001D812000500FA6EAC51FD6EAD517E
:104A6800FE6EAE51FF6EFA5012000501A951AA114F
:104A7800AB11D8B4120001D812000500FA6EA95182
:104A8800FD6EAA51FE6EAB51FF6EFA501200810EF8
:104A9800816F050E826F000E7A6F000E7B6F80C5E6
:104AA8007CF5810E7D6F050E7E6FB0EC23F0120051
:104AB800080E576F000E526F000E516F000E506FA8
:104AC8000E0E556F140E546F7B0E536F000E566FFB
:104AD8001200080E4F6F000E4A6F000E496F000E4D
:104AE800486F0E0E4D6F140E4C6F7B0E4B6F000E01
:104AF8004E6F1200B19EF5EC1EF0D890B637B7375E
:104B0800B7C568F5020E00018F6F68C58EF0B6C58F
:104B18008EF01100A394A392A390000E0001916F50
:104B2800000E926F000E936F000E966F000E996F35
:104B38001200600E0001AD6F000EAF6F000EB36F74
:104B4800080EB16F000EB06F000EAC6F1200000EB1
:104B58000501696F0201C3BBBEAB03D0010E05019D
:104B6800696F05016951120069516A116B11D8B456
:104B7800120069C5A0F56AC5A1F56BC5A2F51200BA
:104B880069516A116B11D8B4120069C5A3F56AC5D9
:104B9800A4F56BC5A5F5120069516A116B11D8B45B
:104BA800120069C5A6F56AC5A7F56BC5A8F5120078
:104BB800FAC409F5FBC40AF5AF9015EC25F00AC54F
:104BC800FBF409C5FAF41100FAC40BF5FBC40CF5A3
:104BD800B49027EC25F00CC5FBF40BC5FAF41100D2
:104BE800FAC40DF5FBC40EF5B89039EC25F00EC5E6
:104BF800FBF40DC5FAF411006A6FABEC25F000095F
:104C0800D8B4FBD76A51E1EC26F012004BEC22F045
:104C18001AEC1CF028EC24F0FDD769C5D6F56AC556
:104C2800D7F56BC5D8F5120069C5D9F56AC5DAF5A7
:104C38006BC5DBF51200550E0001B46FAA0EB46FF8
:104C4800B481120069C5E8F56AC5E9F56BC5EAF5EE
:104C5800120069C5EBF56AC5ECF56BC5EDF51200F8
:104C680069C5E5F56AC5E6F56BC5E7F5120069C5DE
:104C7800DFF56AC5E0F56BC5E1F5120069C5E2F537
:104C88006AC5E3F56BC5E4F5120069C5DCF56AC5CC
:104C9800DDF56BC5DEF5120069C5A9F56AC5AAF58B
:104CA8006BC5ABF5120069C5ACF56AC5ADF56BC54A
:104CB800AEF5120069C5AFF56AC5B0F56BC5B1F5BB
:104CC800120069C5EEF56AC5EFF56BC5F0F512007F
:104CD80069C5F1F56AC5F2F56BC5F3F51200040E66
:104CE8000001E86FFC9DFC9B1200030E0001E86FB9
:104CF800FC9DFC9B1200020E0001E86FFC9DFC9BD2
:104D08001200010E0001E86FFC9DFC9B1200000ED2
:104D18000001E86FFC9DFC9B1200040E0001E86F87
:104D2800FC9DFC9B1200030E0001E86FFC9DFC9BA0
:104D38001200020E0001E86FFC9DFC9B1200010EA0
:104D48000001E86FFC9DFC9B1200000E0001E86F5B
:104D5800FC9DFC9B1200040E0001E86FFC8D120004
:104D6800030E0001E86FFC8D1200020E0001E86FCF
:104D7800FC8D1200010E0001E86FFC8D1200000E80
:104D88000001E86FFC8D1200040E0001E86FFC8D35
:104D98001200030E0001E86FFC8D1200020E0001E4
:104DA800E86FFC8D1200010E0001E86FFC8D120007
:104DB800000E0001E86FFC8D1200696F69C5B6F23C
:024DC8001200D7
:104DCC00B4961100B8961100BC9611001200120096
:104DDC001200120012001200110012001200120038
:020000040030CA
:08000000FCFFFFFF9FFFFFFF63
:01000900FFF7
:00000001FF
