:0400000081EF00F09C
:10000800E744E744E744E7444000A0424000E744AF
:100018008D44E744E744E744E744E744E744E744DA
:10002800E744400040004000E744E744E744E74431
:10003800E744E744E744E744E744E744E744154432
:10004800E744E744E744E744400040008B43534219
:10005800E744E744E7444000E744E7447D43384247
:100068009344E744E744E144E744E744E744E7448A
:10007800E744E744E744E7444000E744E744E7440B
:10008800E744E744E744E744E744E744E744E74410
:10009800E744E744E744E7444000E74440004000C1
:1000A80099441F44E744E244E744E744E744E7440B
:1000B800E744E744E744E744E744E744E744E744E0
:1000C800E744E744E744E744E744E744E744E744D0
:1000D800E744E744E744E744E744E744E744E744C0
:1000E8004000E744E744E34440004000400040004B
:0E00F800E744E744E744E744FF000FEF85F0DC
:10BEA00000040008000D00110016001A001F0023F6
:10BEB0000028002C00310035003A003E00430047C6
:10BEC000004B005000540059005D00620066006B9A
:10BED000006F00740078007D00810086008A008F6A
:10BEE00000930097009C00A000A500A900AE00B23E
:10BEF00000B700BB00C000C400C900CD00D200D60E
:10BF000000DB00DF00E300E800EC00F100F500FAE0
:10BF100000FE00030107010C011001150119011EAB
:10BF200001220127012B012F01340138013D01417C
:10BF30000146014A014F01530158015C016101654D
:10BF4000016A016E01720177017B01800184018920
:10BF5000018D01920196019B019F01A401A801ADF1
:10BF600001B101B601BA01BE01C301C701CC01D0C4
:10BF700001D501D901DE01E201E701EB01F001F495
:10BF800001F901FD01020206020A020F0213021862
:10BF9000021C02210225022A022E02330237023C31
:10BFA000024002450249024E02520256025B025F03
:10BFB00002640268026D02710276027A027F0283D5
:10BFC0000288028C02910295029A029E02A202A7A6
:10BFD00002AB02B002B402B902BD02C202C602CB79
:10BFE00002CF02D402D802DD02E102E502EA02EE4B
:10BFF00002F302F702FC020003050309030E031219
:10C000000317031B032003240329032D03310336E5
:10C01000033A033F03430348034C03510355035AB8
:10C02000035E03630367036C037003750379037D89
:10C0300003820386038B038F03940398039D03A15C
:10C0400003A603AA03AF03B303B803BC03C103C52C
:10C0500003C903CE03D203D703DB03E003E403E900
:10C0600003ED03F203F603FB03FF03040408040DCE
:10C0700004110415041A041E04230427042C04309C
:10C0800004350439043E04420447044B045004546C
:10C090000458045D04610466046A046F0473047840
:10C0A000047C04810485048A048E04930497049C10
:10C0B00004A004A404A904AD04B204B604BB04BFE4
:10C0C00004C404C804CD04D104D604DA04DF04E3B4
:10C0D00004E804EC04F004F504F904FE0402050786
:10C0E000050B051005140519051D05220526052B50
:10C0F000052F05340538053C05410545054A054E23
:10C1000005530557055C056005650569056E0572F3
:10C110000577057B058005840588058D05910596C5
:10C12000059A059F05A305A805AC05B105B505BA97
:10C1300005BE05C305C705CB05D005D405D905DD6A
:10C1400005E205E605EB05EF05F405F805FD05013B
:10C150000606060A060F06130617061C0620062505
:10C160000629062E06320637063B064006440649D7
:10C17000064D06520656065B065F06630668066CA9
:10C1800006710675067A067E06830687068C06907B
:10C1900006950699069E06A206A706AB06AF06B44C
:10C1A00006B806BD06C106C606CA06CF06D306D81F
:10C1B00006DC06E106E506EA06EE06F206F706FBF1
:10C1C000060007040709070D07120716071B071FBC
:10C1D00007240728072D07310736073A073E07438C
:10C1E0000747074C075007550759075E076207675F
:10C1F000076B077007740779077D07820786078A30
:10C20000078F07930798079C07A107A507AA07AE02
:10C2100007B307B707BC07C007C507C907CE07D2D2
:10C2200007D607DB07DF07E407E807ED07F107F6A6
:10C2300007FA07FF07030808080C08110815081A71
:10C24000081E08220827082B083008340839083D42
:10C2500008420846084B084F08540858085D086112
:10C260000865086A086E08730877087C08800885E6
:10C270000889088E08920897089B08A008A408A9B6
:10C2800008AD08B108B608BA08BF08C308C808CC8A
:10C2900008D108D508DA08DE08E308E708EC08F05A
:10C2A00008F508F908FD08020906090B090F091429
:10C2B0000918091D09210926092A092F09330938F6
:10C2C000093C094109450949094E09520957095BC9
:10C2D000096009640969096D09720976097B097F9A
:10C2E00009840988098D09910995099A099E09A36C
:10C2F00009A709AC09B009B509B909BE09C209C73E
:10C3000009CB09D009D409D809DD09E109E609EA10
:10C3100009EF09F309F809FC09010A050A0A0A0EDE
:10C320000A130A170A1C0A200A240A290A2D0A32AB
:10C330000A360A3B0A3F0A440A480A4D0A510A567D
:10C340000A5A0A5F0A630A680A6C0A700A750A794F
:10C350000A7E0A820A870A8B0A900A940A990A9D21
:10C360000AA20AA60AAB0AAF0AB40AB80ABC0AC1F2
:10C370000AC50ACA0ACE0AD30AD70ADC0AE00AE5C5
:10C380000AE90AEE0AF20AF70AFB0A000B040B0894
:10C390000B0D0B110B160B1A0B1F0B230B280B2C61
:10C3A0000B310B350B3A0B3E0B430B470B4B0B5032
:10C3B0000B540B590B5D0B620B660B6B0B6F0B7405
:10C3C0000B780B7D0B810B860B8A0B8F0B930B97D6
:10C3D0000B9C0BA00BA50BA90BAE0BB20BB70BBBA9
:10C3E0000BC00BC40BC90BCD0BD20BD60BDB0BDF79
:10C3F0000BE30BE80BEC0BF10BF50BFA0BFE0B034D
:10C400000C070C0C0C100C150C190C1E0C220C2714
:10C410000C2B0C2F0C340C380C3D0C410C460C4AE8
:10C420000C4F0C530C580C5C0C610C650C6A0C6EB8
:10C430000C720C770C7B0C800C840C890C8D0C928C
:10C440000C960C9B0C9F0CA40CA80CAD0CB10CB65C
:10C450000CBA0CBE0CC30CC70CCC0CD00CD50CD930
:10C460000CDE0CE20CE70CEB0CF00CF40CF90CFD00
:10C470000C020D060D0A0D0F0D130D180D1C0D21CC
:10C480000D250D2A0D2E0D330D370D3C0D400D459C
:10C490000D490D4E0D520D560D5B0D5F0D640D686F
:10C4A0000D6D0D710D760D7A0D7F0D830D880D8C40
:10C4B0000D910D950D9A0D9E0DA20DA70DAB0DB012
:10C4C0000DB40DB90DBD0DC20DC60DCB0DCF0DD4E4
:10C4D0000DD80DDD0DE10DE50DEA0DEE0DF30DF7B7
:10C4E0000DFC0D000E050E090E0E0E120E170E1B82
:10C4F0000E200E240E290E2D0E310E360E3A0E3F52
:10C500000E430E480E4C0E510E550E5A0E5E0E6323
:10C510000E670E6C0E700E750E790E7D0E820E86F5
:10C520000E8B0E8F0E940E980E9D0EA10EA60EAAC7
:10C530000EAF0EB30EB80EBC0EC10EC50EC90ECE98
:10C540000ED20ED70EDB0EE00EE40EE90EED0EF26B
:10C550000EF60EFB0EFF0E040F080F0D0F110F1538
:10C560000F1A0F1E0F230F270F2C0F300F350F3907
:10C570000F3E0F420F470F4B0F500F540F580F5DD8
:10C580000F610F660F6A0F6F0F730F780F7C0F81AB
:10C590000F850F8A0F8E0F930F970F9C0FA00FA47C
:10C5A0000FA90FAD0FB20FB60FBB0FBF0FC40FC84F
:10C5B0000FCD0FD10FD60FDA0FDF0FE30FE80FEC1F
:10C5C0000FF00FF50FF90FFE0F021007100B1010F0
:10C5D00010141019101D10221026102B102F1034BB
:10C5E0001038103C10411045104A104E105310578F
:10C5F000105C106010651069106E10721077107B5F
:10C60000108010841088108D10911096109A109F31
:10C6100010A310A810AC10B110B510BA10BE10C302
:10C6200010C710CB10D010D410D910DD10E210E6D6
:10C6300010EB10EF10F410F810FD10011106110AA4
:10C64000110F11131117111C112011251129112E71
:10C6500011321137113B114011441149114D115242
:10C660001156115B115F11631168116C1171117515
:10C67000117A117E11831187118C119011951199E6
:10C68000119E11A211A711AB11AF11B411B811BDB8
:10C6900011C111C611CA11CF11D311D811DC11E18A
:10C6A00011E511EA11EE11F211F711FB110012045C
:10C6B0001209120D12121216121B121F1224122826
:10C6C000122D12311236123A123E12431247124CF8
:10C6D000125012551259125E12621267126B1270CA
:10C6E00012741279127D12821286128A128F12939C
:10C6F0001298129C12A112A512AA12AE12B312B76E
:10C7000012BC12C012C512C912CE12D212D612DB3E
:10C7100012DF12E412E812ED12F112F612FA12FF11
:10C7200012031308130C13111315131A131E1322DB
:10C730001327132B133013341339133D13421346AD
:10C74000134B134F13541358135D13611365136A7E
:10C75000136E13731377137C138013851389138E51
:10C7600013921397139B13A013A413A913AD13B122
:10C7700013B613BA13BF13C313C813CC13D113D5F5
:10C7800013DA13DE13E313E713EC13F013F513F9C5
:10C7900013FD13021406140B140F14141418141D93
:10C7A00014211426142A142F14331438143C144161
:10C7B00014451449144E14521457145B1460146435
:10C7C0001469146D14721476147B147F1484148805
:10C7D000148D14911495149A149E14A314A714ACD8
:10C7E00014B014B514B914BE14C214C714CB14D0A9
:10C7F00014D414D814DD14E114E614EA14EF14F37D
:10C8000014F814FC14011505150A150E1513151747
:10C81000151C152015241529152D15321536153B17
:10C82000153F15441548154D15511556155A155FE8
:10C8300015631568156C157015751579157E1582BB
:10C840001587158B159015941599159D15A215A68C
:10C8500015AB15AF15B415B815BC15C115C515CA5E
:10C8600015CE15D315D715DC15E015E515E915EE30
:10C8700015F215F715FB150016041608160D1611FE
:10C880001616161A161F16231628162C16311635CC
:10C89000163A163E16431647164B1650165416599E
:10C8A000165D16621666166B166F16741678167D70
:10C8B00016811686168A168F16931697169C16A042
:10C8C00016A516A916AE16B216B716BB16C016C414
:10C8D00016C916CD16D216D616DB16DF16E316E8E5
:10C8E00016EC16F116F516FA16FE16031707170CB6
:10C8F000171017151719171E17221727172B172F81
:10C9000017341738173D17411746174A174F175353
:10C910001758175C17611765176A176E1772177724
:10C92000177B178017841789178D17921796179BF7
:10C93000179F17A417A817AD17B117B617BA17BEC8
:10C9400017C317C717CC17D017D517D917DE17E29B
:10C9500017E717EB17F017F417F917FD170218066A
:10C96000180A180F18131818181C18211825182A37
:10C97000182E18331837183C184018451849184E07
:10C9800018521856185B185F18641868186D1871DB
:10C990001876187A187F18831888188C18911895AB
:10C9A000189A189E18A218A718AB18B018B418B97E
:10C9B00018BD18C218C618CB18CF18D418D818DD4F
:10C9C00018E118E518EA18EE18F318F718FC180023
:10C9D00019051909190E19121917191B19201924EB
:10C9E0001929192D19311936193A193F19431948BE
:10C9F000194C19511955195A195E19631967196C8F
:10CA0000197019751979197D19821986198B198F61
:10CA100019941998199D19A119A619AA19AF19B332
:10CA200019B819BC19C119C519C919CE19D219D704
:10CA300019DB19E019E419E919ED19F219F619FBD6
:10CA400019FF19041A081A0D1A111A151A1A1A1EA2
:10CA50001A231A271A2C1A301A351A391A3E1A4272
:10CA60001A471A4B1A501A541A581A5D1A611A6644
:10CA70001A6A1A6F1A731A781A7C1A811A851A8A16
:10CA80001A8E1A931A971A9C1AA01AA41AA91AADE8
:10CA90001AB21AB61ABB1ABF1AC41AC81ACD1AD1BA
:10CAA0001AD61ADA1ADF1AE31AE81AEC1AF01AF58B
:10CAB0001AF91AFE1A021B071B0B1B101B141B1959
:10CAC0001B1D1B221B261B2B1B2F1B341B381B3C27
:10CAD0001B411B451B4A1B4E1B531B571B5C1B60FA
:10CAE0001B651B691B6E1B721B771B7B1B801B84CA
:10CAF0001B881B8D1B911B961B9A1B9F1BA31BA89E
:10CB00001BAC1BB11BB51BBA1BBE1BC31BC71BCB6E
:10CB10001BD01BD41BD91BDD1BE21BE61BEB1BEF41
:10CB20001BF41BF81BFD1B011C061C0A1C0F1C130D
:10CB30001C171C1C1C201C251C291C2E1C321C37DD
:10CB40001C3B1C401C441C491C4D1C521C561C5BAD
:10CB50001C5F1C631C681C6C1C711C751C7A1C7E81
:10CB60001C831C871C8C1C901C951C991C9E1CA251
:10CB70001CA71CAB1CAF1CB41CB81CBD1CC11CC624
:10CB80001CCA1CCF1CD31CD81CDC1CE11CE51CEAF5
:10CB90001CEE1CF21CF71CFB1C001D041D091D0DC6
:10CBA0001D121D161D1B1D1F1D241D281D2D1D3191
:10CBB0001D361D3A1D3E1D431D471D4C1D501D5564
:10CBC0001D591D5E1D621D671D6B1D701D741D7935
:10CBD0001D7D1D821D861D8A1D8F1D931D981D9C08
:10CBE0001DA11DA51DAA1DAE1DB31DB71DBC1DC0D9
:10CBF0001DC51DC91DCE1DD21DD61DDB1DDF1DE4AB
:10CC00001DE81DED1DF11DF61DFA1DFF1D031E087B
:10CC10001E0C1E111E151E1A1E1E1E221E271E2B46
:10CC20001E301E341E391E3D1E421E461E4B1E4F18
:10CC30001E541E581E5D1E611E651E6A1E6E1E73EA
:10CC40001E771E7C1E801E851E891E8E1E921E97BC
:10CC50001E9B1EA01EA41EA91EAD1EB11EB61EBA8E
:10CC60001EBF1EC31EC81ECC1ED11ED51EDA1EDE60
:10CC70001EE31EE71EEC1EF01EF51EF91EFD1E0231
:10CC80001F061F0B1F0F1F141F181F1D1F211F26FC
:10CC90001F2A1F2F1F331F381F3C1F411F451F49CD
:10CCA0001F4E1F521F571F5B1F601F641F691F6DA0
:10CCB0001F721F761F7B1F7F1F841F881F8D1F9170
:10CCC0001F951F9A1F9E1FA31FA71FAC1FB01FB544
:10CCD0001FB91FBE1FC21FC71FCB1FD01FD41FD815
:10CCE0001FDD1FE11FE61FEA1FEF1FF31FF81FFCE8
:10CCF0001F012005200A200E20132017201C2020B1
:10CD000020242029202D20322036203B203F204483
:10CD10002048204D20512056205A205F2063206853
:10CD2000206C207020752079207E20822087208B27
:10CD3000209020942099209D20A220A620AB20AFF7
:10CD400020B420B820BC20C120C520CA20CE20D3CA
:10CD500020D720DC20E020E520E920EE20F220F79B
:10CD600020FB200021042108210D21112116211A68
:10CD7000211F21232128212C21312135213A213E37
:10CD800021432147214B215021542159215D21620A
:10CD90002166216B216F21742178217D21812186DB
:10CDA000218A218F21932197219C21A021A521A9AE
:10CDB00021AE21B221B721BB21C021C421C921CD7F
:10CDC00021D221D621DB21DF21E321E821EC21F151
:10CDD00021F521FA21FE21032207220C221022151F
:10CDE0002219221E22222227222B222F22342238ED
:10CDF000223D22412246224A224F22532258225CBF
:10CE000022612265226A226E22722277227B228090
:10CE100022842289228D22922296229B229F22A462
:10CE200022A822AD22B122B622BA22BE22C322C734
:10CE300022CC22D022D522D922DE22E222E722EB06
:10CE400022F022F422F922FD22022306230A230FD4
:10CE500023132318231C23212325232A232E2333A2
:10CE60002337233C234023452349234E2352235673
:10CE7000235B235F23642368236D23712376237A46
:10CE8000237F23832388238C23912395239A239E16
:10CE900023A223A723AB23B023B423B923BD23C2EA
:10CEA00023C623CB23CF23D423D823DD23E123E5BB
:10CEB00023EA23EE23F323F723FC2300240524098C
:10CEC000240E24122417241B242024242429242D56
:10CED00024312436243A243F24432448244C24512A
:10CEE0002455245A245E24632467246C24702475FA
:10CEF0002479247D24822486248B248F24942498CE
:10CF0000249D24A124A624AA24AF24B324B824BC9D
:10CF100024C124C524C924CE24D224D724DB24E070
:10CF200024E424E924ED24F224F624FB24FF240441
:10CF30002508250D25112515251A251E252325270C
:10CF4000252C253025352539253E25422547254BDD
:10CF5000255025542558255D25612566256A256FB0
:10CF600025732578257C25812585258A258E259381
:10CF70002597259C25A025A425A925AD25B225B654
:10CF800025BB25BF25C425C825CD25D125D625DA25
:10CF900025DF25E325E825EC25F025F525F925FEF7
:10CFA00025022607260B261026142619261D2622C2
:10CFB0002626262B262F26342638263C2641264593
:10CFC000264A264E26532657265C26602665266965
:10CFD000266E26722677267B268026842688268D36
:10CFE00026912696269A269F26A326A826AC26B109
:10CFF00026B526BA26BE26C326C726CB26D026D4DB
:10D0000026D926DD26E226E626EB26EF26F426F8AC
:10D0100026FD26012706270A270F27132717271C77
:10D02000272027252729272E27322737273B274048
:10D0300027442749274D27522756275B275F276319
:10D040002768276C27712775277A277E27832787EC
:10D05000278C279027952799279E27A227A727ABBC
:10D0600027AF27B427B827BD27C127C627CA27CF90
:10D0700027D327D827DC27E127E527EA27EE27F261
:10D0800027F727FB270028042809280D281228162F
:10D09000281B281F28242828282D28312836283AFC
:10D0A000283E28432847284C285028552859285ED0
:10D0B00028622867286B287028742879287D2882A0
:10D0C0002886288A288F28932898289C28A128A574
:10D0D00028AA28AE28B328B728BC28C028C528C944
:10D0E00028CE28D228D628DB28DF28E428E828ED17
:10D0F00028F128F628FA28FF28032908290C2911E5
:10D100002915291A291E29222927292B29302934B2
:10D110002939293D29422946294B294F2954295883
:10D12000295D29612965296A296E29732977297C56
:10D13000298029852989298E29922997299B29A027
:10D1400029A429A929AD29B129B629BA29BF29C3FA
:10D1500029C829CC29D129D529DA29DE29E329E7CB
:10D1600029EC29F029F529F929FD29022A062A0B9B
:10D170002A0F2A142A182A1D2A212A262A2A2A2F67
:10D180002A332A382A3C2A412A452A492A4E2A5239
:10D190002A572A5B2A602A642A692A6D2A722A760B
:10D1A0002A7B2A7F2A842A882A8D2A912A952A9ADC
:10D1B0002A9E2AA32AA72AAC2AB02AB52AB92ABEAF
:10D1C0002AC22AC72ACB2AD02AD42AD82ADD2AE181
:10D1D0002AE62AEA2AEF2AF32AF82AFC2A012B0552
:10D1E0002B0A2B0E2B132B172B1C2B202B242B291C
:10D1F0002B2D2B322B362B3B2B3F2B442B482B4DEF
:10D200002B512B562B5A2B5F2B632B682B6C2B70BF
:10D210002B752B792B7E2B822B872B8B2B902B9492
:10D220002B992B9D2BA22BA62BAB2BAF2BB42BB862
:10D230002BBC2BC12BC52BCA2BCE2BD32BD72BDC36
:10D240002BE02BE52BE92BEE2BF22BF72BFB2B0006
:10D250002C042C082C0D2C112C162C1A2C1F2C23D2
:10D260002C282C2C2C312C352C3A2C3E2C432C47A2
:10D270002C4B2C502C542C592C5D2C622C662C6B76
:10D280002C6F2C742C782C7D2C812C862C8A2C8F46
:10D290002C932C972C9C2CA02CA52CA92CAE2CB21A
:10D2A0002CB72CBB2CC02CC42CC92CCD2CD22CD6EA
:10D2B0002CDB2CDF2CE32CE82CEC2CF12CF52CFABD
:10D2C0002CFE2C032D072D0C2D102D152D192D1E88
:10D2D0002D222D272D2B2D2F2D342D382D3D2D4159
:10D2E0002D462D4A2D4F2D532D582D5C2D612D652A
:10D2F0002D6A2D6E2D722D772D7B2D802D842D89FD
:10D300002D8D2D922D962D9B2D9F2DA42DA82DADCD
:10D310002DB12DB62DBA2DBE2DC32DC72DCC2DD0A0
:10D320002DD52DD92DDE2DE22DE72DEB2DF02DF471
:10D330002DF92DFD2D022E062E0A2E0F2E132E183E
:10D340002E1C2E212E252E2A2E2E2E332E372E3C0D
:10D350002E402E452E492E4E2E522E562E5B2E5FDF
:10D360002E642E682E6D2E712E762E7A2E7F2E83B1
:10D370002E882E8C2E912E952E9A2E9E2EA22EA782
:10D380002EAB2EB02EB42EB92EBD2EC22EC62ECB55
:10D390002ECF2ED42ED82EDD2EE12EE52EEA2EEE27
:10D3A0002EF32EF72EFC2E002F052F092F0E2F12F5
:10D3B0002F172F1B2F202F242F292F2D2F312F36C2
:10D3C0002F3A2F3F2F432F482F4C2F512F552F5A95
:10D3D0002F5E2F632F672F6C2F702F752F792F7D66
:10D3E0002F822F862F8B2F8F2F942F982F9D2FA139
:10D3F0002FA62FAA2FAF2FB32FB82FBC2FC12FC509
:10D400002FC92FCE2FD22FD72FDB2FE02FE42FE9DC
:10D410002FED2FF22FF62FFB2FFF2F043008300DAA
:10D4200030113015301A301E30233027302C303078
:10D4300030353039303E30423047304B3050305448
:10D440003058305D30613066306A306F307330781C
:10D45000307C30813085308A308E30933097309CEC
:10D4600030A030A430A930AD30B230B630BB30BFC0
:10D4700030C430C830CD30D130D630DA30DF30E390
:10D4800030E830EC30F030F530F930FE3002310762
:10D49000310B311031143119311D31223126312B2C
:10D4A000312F31343138313C31413145314A314EFF
:10D4B00031533157315C316031653169316E3172D0
:10D4C0003177317B318031843188318D31913196A2
:10D4D000319A319F31A331A831AC31B131B531BA74
:10D4E00031BE31C331C731CB31D031D431D931DD47
:10D4F00031E231E631EB31EF31F431F831FD310118
:10D500003206320A320F32133217321C32203225E1
:10D510003229322E32323237323B324032443249B3
:10D52000324D32523256325B325F32633268326C85
:10D5300032713275327A327E32833287328C329057
:10D5400032953299329E32A232A732AB32AF32B428
:10D5500032B832BD32C132C632CA32CF32D332D8FB
:10D5600032DC32E132E532EA32EE32F232F732FBCD
:10D57000320033043309330D33123316331B331F98
:10D5800033243328332D33313336333A333E334368
:10D590003347334C335033553359335E336233673B
:10D5A000336B337033743379337D33823386338A0C
:10D5B000338F33933398339C33A133A533AA33AEDF
:10D5C00033B333B733BC33C033C533C933CE33D2AF
:10D5D00033D633DB33DF33E433E833ED33F133F683
:10D5E00033FA33FF33033408340C34113415341A4E
:10D5F000341E34223427342B343034343439343D1F
:10D6000034423446344B344F34543458345D3461EE
:10D610003465346A346E34733477347C34803485C2
:10D620003489348E34923497349B34A034A434A992
:10D6300034AD34B134B634BA34BF34C334C834CC66
:10D6400034D134D534DA34DE34E334E734EC34F036
:10D6500034F534F934FD34023506350B350F351405
:10D660003518351D35213526352A352F35333538D2
:10D67000353C354135453549354E35523557355BA5
:10D68000356035643569356D35723576357B357F76
:10D6900035843588358D35913595359A359E35A348
:10D6A00035A735AC35B035B535B935BE35C235C71A
:10D6B00035CB35D035D435D835DD35E135E635EAED
:10D6C00035EF35F335F835FC35013605360A360EBB
:10D6D00036133617361C362036243629362D363288
:10D6E0003636363B363F36443648364D365136565A
:10D6F000365A365F36633668366C3670367536792C
:10D70000367E36823687368B369036943699369DFD
:10D7100036A236A636AB36AF36B436B836BC36C1CE
:10D7200036C536CA36CE36D336D736DC36E036E5A1
:10D7300036E936EE36F236F736FB36003704370870
:10D74000370D37113716371A371F37233728372C3D
:10D7500037313735373A373E37433747374B37500E
:10D7600037543759375D37623766376B376F3774E1
:10D770003778377D37813786378A378F37933797B2
:10D78000379C37A037A537A937AE37B237B737BB85
:10D7900037C037C437C937CD37D237D637DB37DF55
:10D7A00037E337E837EC37F137F537FA37FE370329
:10D7B0003807380C381038153819381E38223827F1
:10D7C000382B382F38343838383D38413846384AC5
:10D7D000384F38533858385C38613865386A386E95
:10D7E00038723877387B388038843889388D389269
:10D7F0003896389B389F38A438A838AD38B138B639
:10D8000038BA38BE38C338C738CC38D038D538D90C
:10D8100038DE38E238E738EB38F038F438F938FDDC
:10D8200038023906390A390F39133918391C3921A8
:10D830003925392A392E39333937393C3940394578
:10D840003949394E39523956395B395F396439684B
:10D85000396D39713976397A397F39833988398C1C
:10D8600039913995399A399E39A239A739AB39B0EE
:10D8700039B439B939BD39C239C639CB39CF39D4C0
:10D8800039D839DD39E139E539EA39EE39F339F793
:10D8900039FC39003A053A093A0E3A123A173A1B5E
:10D8A0003A203A243A293A2D3A313A363A3A3A3F2E
:10D8B0003A433A483A4C3A513A553A5A3A5E3A6300
:10D8C0003A673A6C3A703A753A793A7D3A823A86D2
:10D8D0003A8B3A8F3A943A983A9D3AA13AA63AAAA4
:10D8E0003AAF3AB33AB83ABC3AC13AC53AC93ACE75
:10D8F0003AD23AD73ADB3AE03AE43AE93AED3AF248
:10D900003AF63AFB3AFF3A043B083B0D3B113B1514
:10D910003B1A3B1E3B233B273B2C3B303B353B39E3
:10D920003B3E3B423B473B4B3B503B543B583B5DB4
:10D930003B613B663B6A3B6F3B733B783B7C3B8187
:10D940003B853B8A3B8E3B933B973B9C3BA03BA458
:10D950003BA93BAD3BB23BB63BBB3BBF3BC43BC82B
:10D960003BCD3BD13BD63BDA3BDF3BE33BE83BECFB
:10D970003BF03BF53BF93BFE3B023C073C0B3C10CC
:10D980003C143C193C1D3C223C263C2B3C2F3C3497
:10D990003C383C3C3C413C453C4A3C4E3C533C576B
:10D9A0003C5C3C603C653C693C6E3C723C773C7B3B
:10D9B0003C803C843C883C8D3C913C963C9A3C9F0E
:10D9C0003CA33CA83CAC3CB13CB53CBA3CBE3CC3DF
:10D9D0003CC73CCB3CD03CD43CD93CDD3CE23CE6B3
:10D9E0003CEB3CEF3CF43CF83CFD3C013D063D0A81
:10D9F0003D0F3D133D173D1C3D203D253D293D2E4E
:10DA00003D323D373D3B3D403D443D493D4D3D521E
:10DA10003D563D5B3D5F3D633D683D6C3D713D75F1
:10DA20003D7A3D7E3D833D873D8C3D903D953D99C2
:10DA30003D9E3DA23DA73DAB3DAF3DB43DB83DBD94
:10DA40003DC13DC63DCA3DCF3DD33DD83DDC3DE166
:10DA50003DE53DEA3DEE3DF23DF73DFB3D003E0438
:10DA60003E093E0D3E123E163E1B3E1F3E243E2802
:10DA70003E2D3E313E363E3A3E3E3E433E473E4CD4
:10DA80003E503E553E593E5E3E623E673E6B3E70A6
:10DA90003E743E793E7D3E823E863E8A3E8F3E9378
:10DAA0003E983E9C3EA13EA53EAA3EAE3EB33EB74A
:10DAB0003EBC3EC03EC53EC93ECE3ED23ED63EDB1B
:10DAC0003EDF3EE43EE83EED3EF13EF63EFA3EFFEE
:10DAD0003E033F083F0C3F113F153F1A3F1E3F22B8
:10DAE0003F273F2B3F303F343F393F3D3F423F468A
:10DAF0003F4B3F4F3F543F583F5D3F613F653F6A5B
:10DB00003F6E3F733F773F7C3F803F853F893F8E2D
:10DB10003F923F973F9B3FA03FA43FA93FAD3FB1FE
:10DB20003FB63FBA3FBF3FC33FC83FCC3FD13FD5D1
:10DB30003FDA3FDE3FE33FE73FEC3FF03FF53FF9A1
:10DB40003FFD3F024006400B400F40144018401D6F
:10DB500040214026402A402F40334038403C40413D
:10DB600040454049404E40524057405B4060406411
:10DB70004069406D40724076407B407F40844088E1
:10DB8000408D40914095409A409E40A340A740ACB4
:10DB900040B040B540B940BE40C240C740CB40D085
:10DBA00040D440D840DD40E140E640EA40EF40F359
:10DBB00040F840FC40014105410A410E4113411724
:10DBC000411C412041244129412D41324136413BF4
:10DBD000413F41444148414D41514156415A415FC5
:10DBE00041634168416C417041754179417E418298
:10DBF0004187418B419041944199419D41A241A669
:10DC000041AB41AF41B441B841BC41C141C541CA3A
:10DC100041CE41D341D741DC41E041E541E941EE0C
:10DC200041F241F741FB410042044208420D4211DA
:10DC30004216421A421F42234228422C42314235A8
:10DC4000423A423E42434247424B4250425442597A
:10DC5000425D42624266426B426F42744278427D4C
:10DC600042814286428A428F42934297429C42A01E
:10DC700042A542A942AE42B242B742BB42C042C4F0
:10DC800042C942CD42D242D642DB42DF42E342E8C1
:10DC900042EC42F142F542FA42FE42034307430C92
:10DCA000431043154319431E43224327432B432F5D
:10DCB00043344338433D43414346434A434F435330
:10DCC0004358435C43614365436A436E4372437701
:10DCD000437B438043844389438D43924396439BD4
:10DCE000439F43A443A843AD43B143B643BA43BEA5
:10DCF00043C343C743CC43D043D543D943DE43E278
:10DD000043E743EB43F043F443F943FD4302440646
:10DD1000440A440F44134418441C44214425442A13
:10DD2000442E44334437443C444044454449444EE3
:10DD300044524456445B445F44644468446D4471B7
:10DD40004476447A447F44834488448C4491449587
:10DD5000449A449E44A244A744AB44B044B444B95A
:10DD600044BD44C244C644CB44CF44D444D844DD2B
:10DD700044E144E544EA44EE44F344F744FC4400FF
:10DD800045054509450E45124517451B45204524C7
:10DD90004529452D45314536453A453F454345489A
:10DDA000454C45514555455A455E45634567456C6B
:10DDB000457045754579457D45824586458B458F3E
:10DDC00045944598459D45A145A645AA45AF45B30F
:10DDD00045B845BC45C145C545C945CE45D245D7E1
:10DDE00045DB45E045E445E945ED45F245F645FBB3
:10DDF00045FF45044608460D46114615461A461E7F
:10DE000046234627462C463046354639463E46424E
:10DE10004647464B465046544658465D4661466620
:10DE2000466A466F46734678467C46814685468AF2
:10DE3000468E46934697469C46A046A446A946ADC4
:10DE400046B246B646BB46BF46C446C846CD46D196
:10DE500046D646DA46DF46E346E846EC46F046F567
:10DE600046F946FE46024707470B47104714471935
:10DE7000471D47224726472B472F47344738473C03
:10DE800047414745474A474E47534757475C4760D6
:10DE900047654769476E47724777477B47804784A6
:10DEA00047FFFFFFFFFFFFFFFF17E5E8BEA2A32E1E
:10DEB0008F457F8B722168745F1C58D1515D4C97E0
:10DEC000476143A23F493C45398B361034CD31BAC6
:10DED0002FD12D0E2C6C2AE8287F272E26F324CB59
:10DEE00023B522B021BA20D11FF51E241E5E1DA22B
:10DEF0001CF01B451BA31A081A7419E6185F18DDDD
:10DF0000176017E816751607169C153615D3147486
:10DF1000141814BF136A131713C71279122E12E5BF
:10DF2000119F115A111811D81099105D102210E884
:10DF30000FB00F7A0F450F120FE00EAF0E7F0E518C
:10DF40000E240EF80DCC0DA20D790D510D2A0D04E5
:10DF50000DDE0CBA0C960C730C510C2F0C0E0CEE43
:10DF60000BCF0BB00B910B740B570B3A0B1E0B0323
:10DF70000BE80ACE0AB40A9B0A820A690A510A3AD5
:10DF80000A230A0C0AF509DF09CA09B509A0098B99
:10DF9000097709630950093C09290917090409F29D
:10DFA00008E108CF08BE08AD089C088C087C086C06
:10DFB000085C084C083D082E081F0811080208F4E8
:10DFC00007E607D807CA07BD07B007A20795078964
:10DFD000077C077007630757074B073F073407287D
:10DFE000071D0712070607FC06F106E606DB06D149
:10DFF00006C706BC06B206A8069F0695068B0682D3
:10E000000678066F0666065D0654064B064206391C
:10E010000631062806200617060F060706FF05F735
:10E0200005EF05E705DF05D805D005C805C105BA28
:10E0300005B205AB05A4059D0596058F05880581EC
:10E04000057B0574056D05670560055A0553054D8B
:10E0500005470541053A0534052E05280522051D0D
:10E0600005170511050B0506050005FA04F504EF73
:10E0700004EA04E504DF04DA04D504D004CA04C5C4
:10E0800004C004BB04B604B104AC04A804A3049EF9
:10E09000049904940490048B04870482047D047919
:10E0A00004740470046C04670463045F045A045627
:10E0B0000452044E044A04460442043E043A043620
:10E0C0000432042E042A04260422041E041B04170E
:10E0D0000413040F040C04080404040104FD03FAEF
:10E0E00003F603F303EF03EC03E803E503E203DEC7
:10E0F00003DB03D803D403D103CE03CA03C703C48D
:10E1000003C103BE03BB03B803B403B103AE03AB47
:10E1100003A803A503A2039F039D039A03970394F7
:10E120000391038E038B0389038603830380037E9D
:10E13000037B0378037503730370036D036B03683C
:10E14000036603630361035E035B035903560354D1
:10E150000351034F034D034A03480345034303415F
:10E16000033E033C033A0337033503330330032EE6
:10E17000032C032A0327032503230321031F031C66
:10E18000031A03180316031403120310030D030BE1
:10E190000309030703050303030103FF02FD02FB59
:10E1A00002F902F702F502F302F102EF02ED02ECCE
:10E1B00002EA02E802E602E402E202E002DE02DD36
:10E1C00002DB02D902D702D502D402D202D002CE9B
:10E1D00002CC02CB02C902C702C602C402C202C0FC
:10E1E00002BF02BD02BB02BA02B802B602B502B358
:10E1F00002B102B002AE02AD02AB02A902A802A6B1
:10E2000002A502A302A202A0029F029D029B029A03
:10E210000298029702950294029202910290028E55
:10E22000028D028B028A02880287028502840283A1
:10E2300002810280027E027D027C027A02790277EC
:10E2400002760275027302720271026F026E026D33
:10E25000026B026A02690268026602650264026277
:10E2600002610260025F025D025C025B025A0258B8
:10E270000257025602550254025202510250024FF6
:10E28000024E024C024B024A024902480246024533
:10E2900002440243024202410240023E023D023C6D
:10E2A000023B023A023902380237023602350233A3
:10E2B000023202310230022F022E022D022C022BDA
:10E2C000022A02290228022702260225022402230A
:10E2D000022202210220021F021E021D021C021B3A
:10E2E000021A02190218021702160215021402136A
:10E2F000021202110210020F020E020D020C020B9A
:10E30000020A0209020802070207020602050204C5
:10E31000020302020201020002FF01FE01FD01FDF3
:10E3200001FC01FB01FA01F901F801F701F601F620
:10E3300001F501F401F301F201F101F101F001EF46
:10E3400001EE01ED01EC01EC01EB01EA01E901E86C
:10E3500001E701E701E601E501E401E301E301E290
:10E3600001E101E001DF01DF01DE01DD01DC01DCB3
:10E3700001DB01DA01D901D801D801D701D601D5D5
:10E3800001D501D401D301D201D201D101D001CFF5
:10E3900001CF01CE01CD01CD01CC01CB01CA01CA13
:10E3A00001C901C801C801C701C601C501C501C431
:10E3B00001C301C301C201C101C101C001BF01BF4D
:10E3C00001BE01BD01BC01BC01BB01BA01BA01B96A
:10E3D00001B801B801B701B601B601B501B501B484
:10E3E00001B301B301B201B101B101B001AF01AF9D
:10E3F00001AE01AD01AD01AC01AC01AB01AA01AAB6
:10E4000001A901A801A801A701A701A601A501A5CD
:10E4100001A401A401A301A201A201A101A101A0E3
:10E42000019F019F019E019E019D019D019C019BF9
:10E43000019B019A019A019901980198019701970E
:10E440000196019601950195019401930193019222
:10E4500001920191019101900190018F018E018E35
:10E46000018D018D018C018C018B018B018A018A48
:10E47000018901890188018801870186018601855A
:10E48000018501840184018301830182018201816C
:10E49000018101800180017F017F017E017E017D7C
:10E4A000017D017C017C017B017B017A017A01798C
:10E4B000017901780178017701770176017601769B
:10E4C00001750175017401740173017301720172A8
:10E4D0000171017101700170016F016F016F016EB7
:10E4E000016E016D016D016C016C016B016B016AC4
:10E4F000016A016A016901690168016801670167D0
:10E5000001660166016601650165016401640163DC
:10E5100001630163016201620161016101600160E7
:10E520000160015F015F015E015E015D015D015DF2
:10E53000015C015C015B015B015B015A015A0159FD
:10E540000159015801580158015701570156015608
:10E550000156015501550154015401540153015311
:10E560000153015201520151015101510150015019
:10E57000014F014F014F014E014E014D014D014D23
:10E58000014C014C014C014B014B014A014A014A2B
:10E590000149014901490148014801480147014732
:10E5A000014601460146014501450145014401443A
:10E5B0000144014301430142014201420141014141
:10E5C0000141014001400140013F013F013F013E47
:10E5D000013E013E013D013D013D013C013C013B4D
:10E5E000013B013B013A013A013A01390139013954
:10E5F000013801380138013701370137013601365A
:10E60000013601350135013501340134013401345D
:10E610000133013301330132013201320131013161
:10E620000131013001300130012F012F012F012E66
:10E63000012E012E012D012D012D012D012C012C6A
:10E64000012C012B012B012B012A012A012A012A6D
:10E650000129012901290128012801280127012771
:10E660000127012701260126012601250125012573
:10E670000124012401240124012301230123012277
:10E680000122012201220121012101210120012079
:10E6900001200120011F011F011F011E011E011E7B
:10E6A000011E011D011D011D011C011C011C011C7D
:10E6B000011B011B011B011B011A011A011A01197F
:10E6C0000119011901190118011801180118011780
:10E6D0000117011701170116011601160115011581
:10E6E0000115011501140114011401140113011382
:10E6F0000113011301120112011201120111011182
:10E70000011101110110011001100110010F010F81
:10E71000010F010F010E010E010E010E010D010D81
:10E72000010D010D010C010C010C010C010B010B81
:10E73000010B010B010A010A010A010A0109010981
:10E740000109010901080108010801080107010781
:10E750000107010701060106010601060106010580
:10E76000010501050105010401040104010401037F
:10E77000010301030103010301020102010201027D
:10E78000010101010101010101000100010001007D
:10E79000010001FF00FF00FF00FF00FE00FE00FE81
:10E7A00000FE00FE00FD00FD00FD00FD00FD00FC80
:10E7B00000FC00FC00FC00FB00FB00FB00FB00FB7E
:10E7C00000FA00FA00FA00FA00F900F900F900F97D
:10E7D00000F900F800F800F800F800F800F700F77A
:10E7E00000F700F700F700F600F600F600F600F676
:10E7F00000F500F500F500F500F400F400F400F475
:10E8000000F400F300F300F300F300F300F200F271
:10E8100000F200F200F200F100F100F100F100F16D
:10E8200000F000F000F000F000F000EF00EF00EF6B
:10E8300000EF00EF00EE00EE00EE00EE00EE00EE66
:10E8400000ED00ED00ED00ED00ED00EC00EC00EC63
:10E8500000EC00EC00EB00EB00EB00EB00EB00EA5F
:10E8600000EA00EA00EA00EA00EA00E900E900E95B
:10E8700000E900E900E800E800E800E800E800E757
:10E8800000E700E700E700E700E700E600E600E653
:10E8900000E600E600E500E500E500E500E500E54E
:10E8A00000E400E400E400E400E400E400E300E34A
:10E8B00000E300E300E300E200E200E200E200E245
:10E8C00000E200E100E100E100E100E100E100E040
:10E8D00000E000E000E000E000E000DF00DF00DF3B
:10E8E00000DF00DF00DE00DE00DE00DE00DE00DE36
:10E8F00000DD00DD00DD00DD00DD00DD00DC00DC32
:10E9000000DC00DC00DC00DC00DB00DB00DB00DB2B
:10E9100000DB00DB00DA00DA00DA00DA00DA00DA25
:10E9200000DA00D900D900D900D900D900D900D81F
:10E9300000D800D800D800D800D800D700D700D71A
:10E9400000D700D700D700D600D600D600D600D614
:10E9500000D600D600D500D500D500D500D500D50D
:10E9600000D400D400D400D400D400D400D400D308
:10E9700000D300D300D300D300D300D200D200D202
:10E9800000D200D200D200D200D100D100D100D1FB
:10E9900000D100D100D100D000D000D000D000D0F4
:10E9A00000D000CF00CF00CF00CF00CF00CF00CFEE
:10E9B00000CE00CE00CE00CE00CE00CE00CE00CDE8
:10E9C00000CD00CD00CD00CD00CD00CD00CC00CCE1
:10E9D00000CC00CC00CC00CC00CC00CB00CB00CBDA
:10E9E00000CB00CB00CB00CB00CA00CA00CA00CAD3
:10E9F00000CA00CA00CA00C900C900C900C900C9CC
:10EA000000C900C900C800C800C800C800C800C8C4
:10EA100000C800C800C700C700C700C700C700C7BC
:10EA200000C700C600C600C600C600C600C600C6B5
:10EA300000C500C500C500C500C500C500C500C5AE
:10EA400000C400C400C400C400C400C400C400C4A6
:10EA500000C300C300C300C300C300C300C300C29F
:10EA600000C200C200C200C200C200C200C200C197
:10EA700000C100C100C100C100C100C100C100C08F
:10EA800000C000C000C000C000C000C000C000BF87
:10EA900000BF00BF00BF00BF00BF00BF00BF00BE7F
:10EAA00000BE00BE00BE00BE00BE00BE00BE00BD77
:10EAB00000BD00BD00BD00BD00BD00BD00BD00BC6F
:10EAC00000BC00BC00BC00BC00BC00BC00BC00BB67
:10EAD00000BB00BB00BB00BB00BB00BB00BB00BB5E
:10EAE00000BA00BA00BA00BA00BA00BA00BA00BA56
:10EAF00000B900B900B900B900B900B900B900B94E
:10EB000000B900B800B800B800B800B800B800B844
:10EB100000B800B700B700B700B700B700B700B73C
:10EB200000B700B700B600B600B600B600B600B633
:10EB300000B600B600B600B500B500B500B500B52A
:10EB400000B500B500B500B500B400B400B400B421
:10EB500000B400B400B400B400B400B300B300B318
:10EB600000B300B300B300B300B300B300B200B20F
:10EB700000B200B200B200B200B200B200B200B106
:10EB800000B100B100B100B100B100B100B100B1FD
:10EB900000B000B000B000B000B000B000B000B0F5
:10EBA00000B000B000AF00AF00AF00AF00AF00AFEB
:10EBB00000AF00AF00AF00AE00AE00AE00AE00AEE2
:10EBC00000AE00AE00AE00AE00AE00AD00AD00ADD8
:10EBD00000AD00AD00AD00AD00AD00AD00AD00ACCE
:10EBE00000AC00AC00AC00AC00AC00AC00AC00ACC5
:10EBF00000AB00AB00AB00AB00AB00AB00AB00ABBD
:10EC000000AB00AB00AA00AA00AA00AA00AA00AAB2
:10EC100000AA00AA00AA00AA00A900A900A900A9A8
:10EC200000A900A900A900A900A900A900A900A89D
:10EC300000A800A800A800A800A800A800A800A894
:10EC400000A800A700A700A700A700A700A700A78B
:10EC500000A700A700A700A600A600A600A600A681
:10EC600000A600A600A600A600A600A600A500A576
:10EC700000A500A500A500A500A500A500A500A56C
:10EC800000A500A400A400A400A400A400A400A463
:10EC900000A400A400A400A400A300A300A300A358
:10ECA00000A300A300A300A300A300A300A200A24E
:10ECB00000A200A200A200A200A200A200A200A244
:10ECC00000A200A200A100A100A100A100A100A13A
:10ECD00000A100A100A100A100A100A000A000A02F
:10ECE00000A000A000A000A000A000A000A000A024
:10ECF000009F009F009F009F009F009F009F009F1C
:10ED0000009F009F009F009F009E009E009E009E0F
:10ED1000009E009E009E009E009E009E009E009D04
:10ED2000009D009D009D009D009D009D009D009DFB
:10ED3000009D009D009D009C009C009C009C009CF0
:10ED4000009C009C009C009C009C009C009C009BE4
:10ED5000009B009B009B009B009B009B009B009BDB
:10ED6000009B009B009B009A009A009A009A009AD0
:10ED7000009A009A009A009A009A009A009A009AC3
:10ED800000990099009900990099009900990099BB
:10ED900000990099009900990098009800980098AF
:10EDA00000980098009800980098009800980098A3
:10EDB000009800970097009700970097009700979A
:10EDC000009700970097009700970096009600968E
:10EDD0000096009600960096009600960096009683
:10EDE0000096009600950095009500950095009579
:10EDF000009500950095009500950095009500956B
:10EE00000094009400940094009400940094009462
:10EE10000094009400940094009400930093009355
:10EE2000009300930093009300930093009300934A
:10EE30000093009300920092009200920092009240
:10EE40000092009200920092009200920092009232
:10EE5000009100910091009100910091009100912A
:10EE6000009100910091009100910091009000901C
:10EE70000090009000900090009000900090009012
:10EE80000090009000900090008F008F008F008F06
:10EE9000008F008F008F008F008F008F008F008FFA
:10EEA000008F008F008E008E008E008E008E008EF0
:10EEB000008E008E008E008E008E008E008E008EE2
:10EEC000008E008D008D008D008D008D008D008DD9
:10EED000008D008D008D008D008D008D008D008CCB
:10EEE000008C008C008C008C008C008C008C008CC2
:10EEF000008C008C008C008C008C008C008B008BB4
:10EF0000008B008B008B008B008B008B008B008BA9
:10EF1000008B008B008B008B008B008A008A008A9C
:10EF2000008A008A008A008A008A008A008A008A91
:10EF3000008A008A008A008A008900890089008985
:10EF40000089008900890089008900890089008979
:10EF5000008900890089008900880088008800886D
:10EF60000088008800880088008800880088008861
:10EF70000088008800880088008700870087008755
:10EF80000087008700870087008700870087008749
:10EF9000008700870087008700860086008600863D
:10EFA0000086008600860086008600860086008631
:10EFB0000086008600860086008500850085008525
:10EFC0000085008500850085008500850085008519
:10EFD000008500850085008500840084008400840D
:10EFE0000084008400840084008400840084008401
:10EFF00000840084008400840084008300830083F4
:10F0000000830083008300830083008300830083E8
:10F0100000830083008300830083008300820082DA
:10F0200000820082008200820082008200820082D0
:10F0300000820082008200820082008200820081C1
:10F0400000810081008100810081008100810081B8
:10F0500000810081008100810081008100810081A8
:10F06000008100800080008000800080008000809F
:10F070000080008000800080008000800080008090
:10F0800000800080007F007F007F007F007F007F86
:10F09000007F007F007F007F007F007F007F007F78
:10F0A000007F007F007F007F007E007E007E007E6C
:10F0B000007E007E007E007E007E007E007E007E60
:10F0C000007E007E007E007E007E007E007E007D51
:10F0D000007D007D007D007D007D007D007D007D48
:10F0E000007D007D007D007D007D007D007D007D38
:10F0F000007D007C007C007C007C007C007C007C2F
:10F10000007C007C007C007C007C007C007C007C1F
:10F11000007C007C007C007C007B007B007B007B13
:10F12000007B007B007B007B007B007B007B007B07
:10F13000007B007B007B007B007B007B007B007BF7
:10F14000007A007A007A007A007A007A007A007AEF
:10F15000007A007A007A007A007A007A007A007ADF
:10F16000007A007A007A00790079007900790079D4
:10F1700000790079007900790079007900790079C7
:10F1800000790079007900790079007900790078B8
:10F1900000780078007800780078007800780078AF
:10F1A000007800780078007800780078007800789F
:10F1B0000078007800780077007700770077007794
:10F1C0000077007700770077007700770077007787
:10F1D0000077007700770077007700770077007777
:10F1E000007600760076007600760076007600766F
:10F1F000007600760076007600760076007600765F
:10F200000076007600760076007600750075007551
:10F210000075007500750075007500750075007546
:10F220000075007500750075007500750075007536
:10F23000007500750074007400740074007400742C
:10F24000007400740074007400740074007400741E
:10F25000007400740074007400740074007400730F
:10F260000073007300730073007300730073007306
:10F2700000730073007300730073007300730073F6
:10F2800000730073007300730073007200720072E9
:10F2900000720072007200720072007200720072DE
:10F2A00000720072007200720072007200720072CE
:10F2B00000720072007200720071007100710071C2
:10F2C00000710071007100710071007100710071B6
:10F2D00000710071007100710071007100710071A6
:10F2E000007100710071007000700070007000709B
:10F2F000007000700070007000700070007000708E
:10F30000007000700070007000700070007000707D
:10F3100000700070006F006F006F006F006F006F73
:10F32000006F006F006F006F006F006F006F006F65
:10F33000006F006F006F006F006F006F006F006F55
:10F34000006F006E006E006E006E006E006E006E4C
:10F35000006E006E006E006E006E006E006E006E3D
:10F36000006E006E006E006E006E006E006E006E2D
:10F37000006E006D006D006D006D006D006D006D24
:10F38000006D006D006D006D006D006D006D006D15
:10F39000006D006D006D006D006D006D006D006D05
:10F3A000006D006D006C006C006C006C006C006CFB
:10F3B000006C006C006C006C006C006C006C006CED
:10F3C000006C006C006C006C006C006C006C006CDD
:10F3D000006C006C006C006B006B006B006B006BD2
:10F3E000006B006B006B006B006B006B006B006BC5
:10F3F000006B006B006B006B006B006B006B006BB5
:10F40000006B006B006B006B006A006A006A006AA8
:10F41000006A006A006A006A006A006A006A006A9C
:10F42000006A006A006A006A006A006A006A006A8C
:10F43000006A006A006A006A006A006A006900697E
:10F440000069006900690069006900690069006974
:10F450000069006900690069006900690069006964
:10F460000069006900690069006900690069006954
:10F47000006800680068006800680068006800684C
:10F48000006800680068006800680068006800683C
:10F49000006800680068006800680068006800682C
:10F4A0000068006800680067006700670067006721
:10F4B0000067006700670067006700670067006714
:10F4C0000067006700670067006700670067006704
:10F4D00000670067006700670067006700660066F6
:10F4E00000660066006600660066006600660066EC
:10F4F00000660066006600660066006600660066DC
:10F5000000660066006600660066006600660066CB
:10F5100000660066006500650065006500650065C1
:10F5200000650065006500650065006500650065B3
:10F5300000650065006500650065006500650065A3
:10F540000065006500650065006500650065006494
:10F55000006400640064006400640064006400648B
:10F56000006400640064006400640064006400647B
:10F57000006400640064006400640064006400646B
:10F58000006400640064006400630063006300635F
:10F590000063006300630063006300630063006353
:10F5A0000063006300630063006300630063006343
:10F5B0000063006300630063006300630063006333
:10F5C000006300620062006200620062006200622A
:10F5D000006200620062006200620062006200621B
:10F5E000006200620062006200620062006200620B
:10F5F00000620062006200620062006200620062FB
:10F6000000610061006100610061006100610061F2
:10F6100000610061006100610061006100610061E2
:10F6200000610061006100610061006100610061D2
:10F6300000610061006100610061006100610060C3
:10F6400000600060006000600060006000600060BA
:10F6500000600060006000600060006000600060AA
:10F66000006000600060006000600060006000609A
:10F67000006000600060006000600060005F005F8C
:10F68000005F005F005F005F005F005F005F005F82
:10F69000005F005F005F005F005F005F005F005F72
:10F6A000005F005F005F005F005F005F005F005F62
:10F6B000005F005F005F005F005F005F005E005E54
:10F6C000005E005E005E005E005E005E005E005E4A
:10F6D000005E005E005E005E005E005E005E005E3A
:10F6E000005E005E005E005E005E005E005E005E2A
:10F6F000005E005E005E005E005E005E005E005D1B
:10F70000005D005D005D005D005D005D005D005D11
:10F71000005D005D005D005D005D005D005D005D01
:10F72000005D005D005D005D005D005D005D005DF1
:10F73000005D005D005D005D005D005D005D005DE1
:10F74000005D005C005C005C005C005C005C005CD8
:10F75000005C005C005C005C005C005C005C005CC9
:10F76000005C005C005C005C005C005C005C005CB9
:10F77000005C005C005C005C005C005C005C005CA9
:10F78000005C005C005C005B005B005B005B005B9E
:10F79000005B005B005B005B005B005B005B005B91
:10F7A000005B005B005B005B005B005B005B005B81
:10F7B000005B005B005B005B005B005B005B005B71
:10F7C000005B005B005B005B005B005B005A005A63
:10F7D000005A005A005A005A005A005A005A005A59
:10F7E000005A005A005A005A005A005A005A005A49
:10F7F000005A005A005A005A005A005A005A005A39
:10F80000005A005A005A005A005A005A005A005A28
:10F81000005A005A0059005900590059005900591E
:10F820000059005900590059005900590059005910
:10F830000059005900590059005900590059005900
:10F8400000590059005900590059005900590059F0
:10F8500000590059005900590059005900580058E2
:10F8600000580058005800580058005800580058D8
:10F8700000580058005800580058005800580058C8
:10F8800000580058005800580058005800580058B8
:10F8900000580058005800580058005800580058A8
:10F8A000005800580058005800570057005700579C
:10F8B0000057005700570057005700570057005790
:10F8C0000057005700570057005700570057005780
:10F8D0000057005700570057005700570057005770
:10F8E0000057005700570057005700570057005760
:10F8F0000057005700560056005600560056005656
:10F900000056005600560056005600560056005647
:10F910000056005600560056005600560056005637
:10F920000056005600560056005600560056005627
:10F930000056005600560056005600560056005617
:10F94000005600550055005500550055005500550E
:10F9500000550055005500550055005500550055FF
:10F9600000550055005500550055005500550055EF
:10F9700000550055005500550055005500550055DF
:10F9800000550055005500550055005500550055CF
:10F9900000550054005400540054005400540054C6
:10F9A00000540054005400540054005400540054B7
:10F9B00000540054005400540054005400540054A7
:10F9C0000054005400540054005400540054005497
:10F9D0000054005400540054005400540054005487
:10F9E000005400540053005300530053005300537D
:10F9F000005300530053005300530053005300536F
:10FA0000005300530053005300530053005300535E
:10FA1000005300530053005300530053005300534E
:10FA2000005300530053005300530053005300533E
:10FA30000053005300530053005200520052005232
:10FA40000052005200520052005200520052005226
:10FA50000052005200520052005200520052005216
:10FA60000052005200520052005200520052005206
:10FA700000520052005200520052005200520052F6
:10FA800000520052005200520052005200520052E6
:10FA900000510051005100510051005100510051DE
:10FAA00000510051005100510051005100510051CE
:10FAB00000510051005100510051005100510051BE
:10FAC00000510051005100510051005100510051AE
:10FAD000005100510051005100510051005100519E
:10FAE0000051005100510051005000500050005092
:10FAF0000050005000500050005000500050005086
:10FB00000050005000500050005000500050005075
:10FB10000050005000500050005000500050005065
:10FB20000050005000500050005000500050005055
:10FB30000050005000500050005000500050005045
:10FB40000050004F004F004F004F004F004F004F3C
:10FB5000004F004F004F004F004F004F004F004F2D
:10FB6000004F004F004F004F004F004F004F004F1D
:10FB7000004F004F004F004F004F004F004F004F0D
:10FB8000004F004F004F004F004F004F004F004FFD
:10FB9000004F004F004F004F004F004F004F004EEE
:10FBA000004E004E004E004E004E004E004E004EE5
:10FBB000004E004E004E004E004E004E004E004ED5
:10FBC000004E004E004E004E004E004E004E004EC5
:10FBD000004E004E004E004E004E004E004E004EB5
:10FBE000004E004E004E004E004E004E004E004EA5
:10FBF000004E004E004E004E004E004E004E004D96
:10FC0000004D004D004D004D004D004D004D004D8C
:10FC1000004D004D004D004D004D004D004D004D7C
:10FC2000004D004D004D004D004D004D004D004D6C
:10FC3000004D004D004D004D004D004D004D004D5C
:10FC4000004D004D004D004D004D004D004D004D4C
:10FC5000004D004D004D004D004D004D004D004D3C
:10FC6000004C004C004C004C004C004C004C004C34
:10FC7000004C004C004C004C004C004C004C004C24
:10FC8000004C004C004C004C004C004C004C004C14
:10FC9000004C004C004C004C004C004C004C004C04
:10FCA000004C004C004C004C004C004C004C004CF4
:10FCB000004C004C004C004C004C004C004C004CE4
:10FCC000004C004C004B004B004B004B004B004BDA
:10FCD000004B004B004B004B004B004B004B004BCC
:10FCE000004B004B004B004B004B004B004B004BBC
:10FCF000004B004B004B004B004B004B004B004BAC
:10FD0000004B004B004B004B004B004B004B004B9B
:10FD1000004B004B004B004B004B004B004B004B8B
:10FD2000004B004B004B004B004B004A004A004A7E
:10FD3000004A004A004A004A004A004A004A004A73
:10FD4000004A004A004A004A004A004A004A004A63
:10FD5000004A004A004A004A004A004A004A004A53
:10FD6000004A004A004A004A004A004A004A004A43
:10FD7000004A004A004A004A004A004A004A004A33
:10FD8000004A004A004A004A004A004A004A004A23
:10FD9000004A004A00490049004900490049004919
:10FDA000004900490049004900490049004900490B
:10FDB00000490049004900490049004900490049FB
:10FDC00000490049004900490049004900490049EB
:10FDD00000490049004900490049004900490049DB
:10FDE00000490049004900490049004900490049CB
:10FDF00000490049004900490049004900490049BB
:10FE000000480048004800480048004800480048B2
:10FE100000480048004800480048004800480048A2
:10FE20000048004800480048004800480048004892
:10FE30000048004800480048004800480048004882
:10FE40000048004800480048004800480048004872
:10FE50000048004800480048004800480048004862
:10FE60000048004800480048004800480048004852
:10FE7000004700470047004700470047004700474A
:10FE8000004700470047004700470047004700473A
:10FE9000004700470047004700470047004700472A
:10FEA000006A080100000000000054130100000077
:10FEB000D21101000000000000000000000000005E
:10FEC0000000000000000000000000000000000032
:10FED000000000000000000000000000001C1201F3
:10FEE000041201EC11010000009811010000000053
:10FEF0000000000000000000000000000000000002
:10FF000000000000000000000000000000000000F1
:10FF1000000000CE0F010000000000000000009073
:10FF20001201000000FE0F010000000000000000B0
:10FF3000009E1201000000020000010002400000CB
:10FF400000205265762E20312E302E33203A206646
:10FF50006F7220746F7572626F522032303234319A
:10FF60003230380D0A000D0A494F45753A20534387
:10FF7000432D456D752053696D706C657820313562
:10FF80002D626974204441430D0A00204F7074694A
:10FF90006D697A6174696F6E206C6576656C3A2064
:10FFA000320D0A002053494E474C452D57524954B3
:10FFB000452D4D4F44453A204F4E0D0A00204652E4
:10FFC00045452D52554E2D4D4F44453A204F4E0D2F
:10FFD0000A0020456E61626C6520434831746F33BE
:10FFE0002D4C55540D0A0020456E61626C6520430E
:0FFFF0004834746F352D4C55540D0A002A00000B
:020000040001F9
:10000000200E1F600ED01F501F0B386E396A980EDD
:100010003824D96E050E3920DA6E1E50800FDF6E3F
:100020001200400E1F600ED01F501F0B386E396A31
:10003000B80E3824D96E050E3920DA6E1E50800FA6
:10004000DF6E1200600E1F600ED01F501F0B386E47
:10005000396A780E3824D96E050E3920DA6E1E50B2
:10006000800FDF6E1200800E1F601BD0800E1E26D8
:100070001F501F0B386E396A400E3824D96E060E99
:100080003920DA6E1EC5DFF41F501F0B386E396A37
:10009000200E3824D96E060E3920DA6E1EC5DFF424
:1000A0001200800E1F18D8A40ED0000E0914386E4E
:1000B0000F0E0A14396E1E503810096E39500A6E30
:1000C000D8EC86F01200810E1F18D8A40FD01E5055
:1000D000396E386AFF0E09143A6E000E0A143B6E30
:1000E00038503A10096E39503B10E9D7820E1F186C
:1000F000D8A40ED0000E0714386E0F0E0814396EF7
:100100001E503810076E3950086EB7EC86F012009A
:10011000830E1F18D8A40FD01E50396E386AFF0EF8
:1001200007143A6E000E08143B6E38503A10076EF2
:1001300039503B10E9D7840E1F18D8A40ED0000EFA
:100140000514386E0F0E0614396E1E503810056EE9
:100150003950066E96EC86F01200850E1F18D8A452
:100160000FD01E50396E386AFF0E05143A6E000E1D
:1001700006143B6E38503A10056E39503B10E9D7E3
:10018000860E1F18D8A40ED0000E0314386E0F0E62
:100190000414396E1E503810036E3950046E4DEC45
:1001A00087F01200870E1F18D8A40FD01E50396E8A
:1001B000386AFF0E03143A6E000E04143B6E38507A
:1001C0003A10036E39503B10E9D7880E1F18D8A497
:1001D0000ED0000E0114386E0F0E0214396E1E5030
:1001E0003810016E3950026E32EC87F01200890E21
:1001F0001F18D8A40FD01E50396E386AFF0E011494
:100200003A6E000E02143B6E38503A10016E3950AF
:100210003B10E9D78A0E1F18D8A403D01EC51DF5C0
:1002200012008B0E1F18D8A403D01EC51CF5120097
:100230008C0E1F18D8A403D01EC51BF512008D0EFE
:100240001F18D8A403D01EC51AF512008E0E1F1851
:10025000D8A403D01EC519F512008F0E1F18D8A4FC
:1002600003D01EC518F51200DF0E1F6412001EC554
:1002700017F512009E9A000ED56FD787AE9A000E22
:10028000166EA892040ED56FD785B892D2B003D05F
:10029000010E136E04D0000E136ED795A882020EC5
:1002A000916FC40E926F020E936F010E966F000E47
:1002B000996F360E0201196FC990C994000E0001A2
:1002C000956F000E906F000E8F6FD2B202D0100E9D
:1002D00001D0300E126ED294918F020E8F6F400EAD
:1002E0008E6F000E8E6F660E0501FE6FFF0EFF6FA4
:1002F00015EC88F0410E0501FE6FFF0EFF6F15EC47
:1003000088F0D20E0501FE6FFF0EFF6F15EC88F02E
:10031000E70E0501FE6FFF0EFF6F15EC88F0BD0EB6
:100320000501FE6FFF0EFF6F15EC88F0A40E0501AE
:10033000FE6FFF0EFF6F15EC88F08B0E0501FE6F50
:10034000FF0EFF6F15EC88F0000E116E590E0301C1
:10035000196FB19EA18E1A8F040E236F248F000E89
:100360000001D56FD797D785D795AE9A9E8A000E94
:10037000166EBEEC89F0BAEC89F0B6EC89F0B2ECFE
:1003800089F0AEEC89F00401468F4E8F568F698E4E
:10039000788ED68E1200000EBE6E000EBF6E000E5E
:1003A000C06E010EC16E040EC26EC668C768C86812
:1003B000E40EC96E0B0ECA6E000E0401006F000E33
:1003C000086F000E106F000E186F000E206F01698D
:1003D000096911691969070E216F000E026F000E7D
:1003E0000A6F000E126F100E1A6F000E226F000EB1
:1003F000036F000E0B6F000E136F000E1B6F030ECA
:10040000236F000E046F000E0C6F000E146F0F0EA2
:100410001C6F0F0E246F000E0201896F000E886F93
:10042000000E876F000E866F040E616F050E626FFF
:10043000060E656F070E666F1D0E636F1F0E646FED
:10044000230E1C6F040E1D6F350E1A6F1A0E6D6F82
:10045000340E1B6F000E0401056F000E066F000EB8
:10046000076F000E0D6F000E0E6F000E0F6F000E67
:10047000156F000E166F000E176F000E256F000E21
:10048000266F000E276F1200000E416E000E406EA8
:100490001D504026000E41221C504026000E4122D5
:1004A0001B504026000E41221A504026000E4122C9
:1004B00019504026000E412240504B08406E4150DA
:1004C000D8A0E82A0008416E070ED8904036413681
:1004D000E82EFBD718B002D0800E246E18B202D0DE
:1004E000800E256E18B402D0800E236E18B602D08E
:1004F000800E226E18B802D0800E216E24501D028C
:10050000F3C40BF5F4C40CF525501C02F3500B2674
:10051000F4500C2223501B02F3500B26F4500C22F3
:1005200022501A02F3500B26F4500C2221501902CB
:10053000F3500B26F4500C2240500B2641500C2255
:100540001200FA51FB11D8B404D0FA51FB11D8A40F
:1005500004D0F8513EEC89F0120020EE0AF0FA5176
:10056000D926FB51DA22DE50DE10D8B417D020EEA7
:100570000AF0FA51D926FB51DA2210EE03F0FA51B3
:10058000E126FB51E222DE50E65CE650800A0601DD
:10059000646FDE50800A6459D8B01200050120EE65
:1005A00003F0FA51D926FB51DA22DEC460F6DDC42D
:1005B00061F6FAC5D9F4FBC5DAF4DEC462F6DDC42F
:1005C00063F6060160516225D96E61516321DA6ECE
:1005D000F8C5DFF4050120EE03F0FA51D926FB51EE
:1005E000DA22DE2A000EDD221200200E1F600ED05D
:1005F0001F501F0B346E356A980E3424D96E050EC9
:100600003520DA6EDF50800FC06E1200400E1F6082
:100610000ED01F501F0B346E356AB80E3424D96EBD
:10062000050E3520DA6EDF50800FC06E1200600EAE
:100630001F600ED01F501F0B346E356A780E3424A5
:10064000D96E050E3520DA6EDF50800FC06E1200B5
:10065000800E1F600ED01F501F0B346E356A400E87
:100660003424D96E060E3520DA6EDF50800FC06E4E
:10067000120017C5C0F41200D68A000ED6BE010EB5
:10068000F96FD69E550E0401596FAA0E596F5991F4
:10069000000E5F6F000E5E6F080E5D6F550E596F96
:1006A000AA0E596F59810501F9B102D0D69E01D029
:1006B000D68E0301628B658F6C83AF90D6809E0EC1
:1006C0000501F66F130EF76F010EF86F95EC89F0C8
:1006D000B490D682A00EF66F130EF76F010EF86F6E
:1006E0008EEC89F0B890D684A20EF66F130EF76FD9
:1006F000010EF86F87EC89F01200000E606E020E9A
:10070000616E000E626E6F0E636E040E646E030EF9
:10071000656E000E666E000E676E000E686E000E4F
:100720006A6E380E6B6E020E6C6E380E6D6E020EB7
:100730006E6EB29CB29E67906792A29EA29C980E2B
:100740000501F66F130EF76F010EF86F79EC89F063
:10075000960EF66F130EF76F010EF86F72EC89F0BC
:100760009A0EF66F130EF76F010EF86F80EC89F09A
:10077000000E696E120067C6D9F468C6DAF4DEC4EA
:10078000F6F4DDC4F7F4000EF86E0800F550250A03
:10079000D8A418D067C6D9F468C6DAF4DE2A000EE9
:1007A000DD22000E0501736F000E726F72C50DF52C
:1007B0007469756967C6D9F468C6DAF4DE2A000E72
:1007C000DD22120067C6D9F468C6DAF4DEC4F6F496
:1007D000DDC4F7F4000EF86E0800F5500501F86F5F
:1007E000F96B65C6FAF566C6FBF5A1EC82F0E2D7B7
:1007F000000E6F6E020E706E000E716E7F0E726EC6
:100800003E0E736E030E746E000E756E000E766EE5
:10081000000E776E000E796E400E7A6E1F0E7B6EA4
:10082000400E7C6E1F0E7D6EB39CB39E76907692CA
:10083000A39EA39C920EF66F130EF76F010EF86F36
:1008400064EC89F0900EF66F130EF76F010EF86FDF
:100850005DEC89F0940EF66F130EF76F010EF86FD2
:100860006BEC89F0000E786E1200000E0201B46F7E
:10087000000EB66F000EB86F000EBA6F000EBC6FA0
:10088000B00EBE6F800EBF6F000EC06FC169010E4B
:10089000C26F2E0EC36F000EC46F800EC56F000EA8
:1008A000C66F000E0501F66F000EF76F000EF86FB1
:1008B0000EEC89F0000EF66F000EF76F000EF86F69
:1008C00002EC89F0000EF66F000EF76F000EF86F65
:0E08D000F6EC88F0000E776F000E766F1200C7
:1008E000FAC426F5FBC427F5B39E77B076A013D0E3
:1008F00076900501ED51EE11EF11D8B422D001D858
:1009000020D00500FA6EED51FD6EEE51FE6EEF51F6
:10091000FF6EFA50120077B276A213D076920501DC
:10092000EA51EB11EC11D8B40CD001D80AD0050073
:10093000FA6EEA51FD6EEB51FE6EEC51FF6EFA500D
:10094000120027C5FBF426C5FAF41100FAC42AF5F3
:10095000FBC42BF5B29E68B067A013D06790050169
:10096000E451E511E611D8B422D001D820D0050019
:10097000FA6EE451FD6EE551FE6EE651FF6EFA50DF
:10098000120068B267A213D067920501E151E2112B
:10099000E311D8B40CD001D80AD00500FA6EE151A9
:1009A000FD6EE251FE6EE351FF6EFA5012002BC550
:1009B000FBF42AC5FAF41100DBEC88F0CBEC81F0F3
:1009C0004DEC86F082EC87F0CEEC87F0B5EC87F04A
:1009D00072EC86F068EC87F09CEC87F028EC86F0EF
:1009E00003EC86F0DEEC85F0B9EC85F094EC85F054
:1009F00051EC88F0BBEC88F0AAEC88F07DEC83F039
:100A0000F8EC83F0CCEC88F0FFEC87F0E7EC87F0B3
:100A100035EC84F03CEC83F056EC89F0120002EEE9
:100A200000F010EE00F1EE6AE550E150FCE1E2501A
:100A3000FAE101EE00F310EE00F1EE6AE550E1504C
:100A4000FCE1E250FAE101EE00F2600EEE6AE80627
:100A5000FDE101EE60F1780EEE6AE806FDE101EEDF
:100A600001F1250EEE6AE806FDE10401080E5D6F56
:0E0A7000000E5E6F000E5F6F000199EF88F0C0
:100A8000F6C43CF5F7C43DF5F8C43EF5F5C43FF5B2
:100A9000D1AC07D0CFC41FF5D0C41EF500EC80F058
:100AA00011D01604D8A40ED0CFC41FF5000EC86E06
:100AB000F5EC82F00001D785D1AAFED7C868AE9ABE
:100AC000000103D00001D785AE9AD7953FC5F5F454
:100AD0003EC5F8F43DC5F7F43CC5F6F411006DC60B
:100AE000FCF56EC6FDF50FD06BC665F66CC666F6F6
:100AF000FC0E0601676F050E686F6FC669F670C65B
:100B00006AF6BBEC83F0FCC5F6F4FDC5F7F4000E05
:100B1000F86E0800F5500009D8A4E6D7000E0601CB
:100B20006C6F000E6B6F1200040EE86F200EF96FF1
:100B3000060EFA6F000EFB6F050EF16F210EF06FBF
:100B4000020EFD6F000EF86F200EF76F000EEF6FB4
:100B5000010EEE6F2E0EFF6F000EFE6FBA9ABA985E
:100B6000BA9EBA9CAA9AAA98AA9EAA9C800EFC6FCA
:100B70001200030EE86F400EF96F060EFA6F000EBA
:100B8000FB6F050EF16F220EF06F020EFD6F000E6F
:100B9000F86F200EF76F000EEF6F010EEE6F260E4E
:100BA000FF6F000EFE6FB99AB998B99EB99CA99AC9
:100BB000A998A99EA99C800EFC6F1200020EE86FF6
:100BC000780EF96F050EFA6F000EFB6F050EF16FD0
:100BD000230EF06F020EFD6F000EF86F200EF76F00
:100BE000000EEF6F010EEE6F730EFF6F000EFE6FC3
:100BF000B89AB898B89EB89CA89AA898A89EA89C9D
:100C0000800EFC6F1200010EE86FB80EF96F050E32
:100C1000FA6F000EFB6F050EF16F250EF06F020EDE
:100C2000FD6F000EF86F200EF76F000EEF6F010ED4
:100C3000EE6F530EFF6F000EFE6FB49AB498B49E21
:100C4000B49CA49AA498A49EA49C800EFC6F12004D
:100C5000000EE86F980EF96F050EFA6F000EFB6F2D
:100C6000050EF16F240EF06F020EFD6F000EF86F8F
:100C7000200EF76F000EEF6F010EEE6F330EFF6F59
:100C8000000EFE6FB09AB098B09EB09CA09AA0984B
:100C9000A09EA09C800EFC6F1200000E0001D56F7C
:100CA000800ED76F020ED86F340ED96F340EDA6F04
:100CB000340EDB6F010EDC6F080EDD6F000EDE6F91
:100CC000000EDF6F000ED46F8C0ED66FAE9A000E42
:100CD0000501F66F000EF76F000EF86FA3EC89F0B8
:100CE0009E8A1200040ED56F800ED76F020ED86F49
:100CF000380ED96F380EDA6F380EDB6F010EDC6FED
:100D0000080EDD6F000EDE6F000EDF6F000ED46F79
:100D10008C0ED66FB892000E0501F66F000EF76FBD
:100D2000000EF86F9CEC89F0A8821200D890053470
:100D3000F66E0634F76EA10EF626DE0EF722F86A7E
:100D4000000EF8220900F5C436F50A00F5C437F59F
:100D500036C534F537C536F5376A36C535F5000E74
:100D60000401556F35C554F434C553F41200D890BE
:100D70000734F66E0834F76EA10EF626DE0EF72263
:100D8000F86A000EF8220900F5C436F50A00F5C429
:100D900037F536C534F537C536F5376A36C535F516
:100DA000000E04014D6F35C54CF434C54BF41200F0
:100DB000D8900934F66E0A34F76EA10EF626DE0ED0
:100DC000F722F86A000EF8220900F5C436F50A0089
:100DD000F5C437F536C534F537C536F5376A36C547
:100DE00035F5000E0401456F35C544F434C543F4B0
:020DF0001200EF
:100DF400FAC428F5FBC429F5B39C0501E751E811B1
:100E0400E911D8B40CD001D80AD00500FA6EE75124
:100E1400FD6EE851FE6EE951FF6EFA50120029C5CD
:100E2400FBF428C5FAF41100FAC42CF5FBC42DF523
:100E3400B29C0501DE51DF11E011D8B40CD001D809
:100E44000AD00500FA6EDE51FD6EDF51FE6EE051F0
:100E5400FF6EFA5012002DC5FBF42CC5FAF41100F4
:100E6400D8900134F66E0234F76EA10EF626BE0E4B
:100E7400F722F86A000EF8220900F5C434F50A00D6
:100E8400F5C435F534C572F435C534F5356A34C561
:100E940073F478841200D8900334F66E0434F76E39
:100EA400A10EF626BE0EF722F86A000EF8220900FB
:100EB400F5C434F50A00F5C435F534C563F435C515
:100EC40034F5356A34C564F469841200050E0001F2
:100ED400D56F0C0ED76F350ED86F030ED96F030E76
:100EE400DA6F030EDB6F020EDC6F040EDD6F000E93
:100EF400DE6F000EDF6F000ED46F820ED66F12000D
:100F0400010E0001D56F0C0ED76F350ED86F030E8E
:100F1400D96F030EDA6F030EDB6F020EDC6F080E5F
:100F2400DD6F000EDE6F000EDF6F000ED46F820ED9
:100F3400D66F1200000EB46F070EB56F070EB66FB2
:100F4400070EB76F070EB86F070EB96F070EBA6FAB
:100F5400070EBB6F070EBE6F070EBF6F000EF46E59
:100F6400000EF36E1200030ED56F0C0ED76F330E06
:100F7400D86F370ED96F330EDA6F330EDB6F020E74
:100F8400DC6F080EDD6F000EDE6F000EDF6F000EEB
:100F9400D46F820ED66F1200020ED56F000ED76F7B
:100FA400000ED86F010ED96F040EDA6F050EDB6FD9
:100FB400020EDC6F040EDD6F100EDE6F800EDF6F2D
:100FC400000ED46F820ED66F1200030E266F000E31
:100FD400256F000E276F0F0E236F000E226F000E79
:100FE4000501F66F000EF76F000EF86F48EC89F0FC
:100FF400B196000E0301246F12002C0E0301196F29
:10100400000E186F740E1B6F000E0501F66F000EB4
:10101400F76F000EF86F4FEC89F0B19EA18E000EB1
:1010240003011A6F1200000E0601716F060E726F33
:10103400000E6B6F000E6C6FFEC56DF6FFC56EF68D
:0E104400710E6F6F060E706F6FEC85F012006C
:10105400B19E44EC82F0D8900B360C360CC542F5A8
:10106400020E00018F6F42C58EF00BC58EF0B1AE3B
:101074001100010E106E1100040E0001D56FD1ACE9
:1010840008D03F0ED018D8A402D0010E01D0000E13
:10109400166ED785B892D795000ED56F1100080E3D
:1010A4000401476F000E426F000E416F000E406F47
:1010B4000E0E456F140E446F7B0E436F000E466F89
:1010C400120005016F5170117111D8B4120001D8CA
:1010D40012000500FA6E6F51FD6E7051FE6E715173
:1010E400FF6EFA50120005016C516D116E11D8B4E7
:1010F400120001D812000500FA6E6C51FD6E6D519C
:10110400FE6E6E51FF6EFA501200050169516A11AC
:101114006B11D8B4120001D812000500FA6E69519F
:10112400FD6E6A51FE6E6B51FF6EFA501200DCECDC
:1011340084F03AEC81F01050D8B4FDD7FC0E0501D0
:10114400FE6FFF0EFF6F15EC88F0000E106EF3D7E4
:10115400080E576F000E526F000E516F000E506F45
:101164000E0E556F140E546F7B0E536F000E566F98
:101174001200080E4F6F000E4A6F000E496F000EEA
:10118400486F0E0E4D6F140E4C6F7B0E4B6F000E9E
:101194004E6F1200A394A392A390000E0001916FCE
:1011A400000E926F000E936F000E966F000E996FF3
:1011B4001200600E0001AD6F000EAF6F000EB36F32
:1011C400080EB16F000EB06F000EAC6F1200000E6F
:1011D4000501F66F0201C3BBBEAB03D0010E0501CE
:1011E400F66F0501F6511200F651F711F811D8B453
:1011F4001200F6C560F5F7C561F5F8C562F5120091
:10120400F651F711F811D8B41200F6C563F5F7C515
:1012140064F5F8C565F51200F651F711F811D8B464
:101224001200F6C566F5F7C567F5F8C568F512004E
:10123400FAC42EF5FBC42FF5AF9063EC88F02FC5EC
:10124400FBF42EC5FAF41100FAC430F5FBC431F5F1
:10125400B49075EC88F031C5FBF430C5FAF4110094
:10126400FAC432F5FBC433F5B89087EC88F033C583
:10127400FBF432C5FAF41100F76FE9EC88F00009C9
:10128400D8B4FBD7F751AAEC89F01200F6C5D8F50B
:10129400F7C5D9F5F8C5DAF51200F6C5DBF5F7C5DB
:1012A400DCF5F8C5DDF51200550E0001B46FAA0E89
:1012B400B46FB4811200F6C5EAF5F7C5EBF5F8C5CD
:1012C400ECF51200F6C5EDF5F7C5EEF5F8C5EFF54A
:1012D4001200F6C5E7F5F7C5E8F5F8C5E9F512001B
:1012E400F6C5E1F5F7C5E2F5F8C5E3F51200F6C574
:1012F400E4F5F7C5E5F5F8C5E6F51200F6C5DEF543
:10130400F7C5DFF5F8C5E0F51200F6C569F5F7C5D0
:101314006AF5F8C56BF51200F6C56CF5F7C56DF501
:10132400F8C56EF51200F6C56FF5F7C570F5F8C58A
:1013340071F51200F6C5F0F5F7C5F1F5F8C5F2F54B
:101344001200F6C5F3F5F7C5F4F5F8C5F5F5120086
:10135400F66FF6C5B6F21200040EE86FFC8D1200AB
:10136400030EE86FFC8D1200020EE86FFC8D120074
:10137400010EE86FFC8D1200000EE86FFC8D120068
:10138400B4961100B8961100BC9611001200120018
:1013940012001200120012001100120012001200BA
:020000040030CA
:08000000FCFFFFFF9FFFFFFF63
:01000900FFF7
:00000001FF
