:040000008031102813
:100008007E1480310B1F0E2841011A19101D0E286D
:10001800823134227E10090080311228F801F9015A
:10002800FA01FB01FC01FD014001A001A101A201AF
:10003800A301A401A501A601A701A801A901AA017C
:10004800AB017E1040018031D128183080150F187F
:100058000006A514E9010A280E38343DAD00DA007F
:1000680040030A28AC008A0D6018343DB000000136
:10007800000000006200CA0CA000C60CA008050A17
:100088007020C3140000000000001E0001000D1EB7
:10009800A70B0104AE02CA0D6018142940010C1404
:1000A80081010C30E8010A280510343DAF00F0004A
:1000B80000000000AF00EA0D6018A615A6340A0675
:1000C80040130A28000000000000142940010F1402
:1000D8004013801500180000000000000000000018
:1000E800000000000000003CE009000000000000E3
:1000F80000000000010101201F3CE1031F3CF0014A
:100108001F3EE0031F3EE1031F3C0000000000000B
:100118000000003800004001980199019A01073059
:1001280092009301DF3094007D018C019601A001BB
:1001380037308D00F0309700FF30A1008E01980114
:100148002030A20037308F00F0309900DF30A30054
:10015800083090009A01A40102307C01BD001630DD
:10016800D7001730D80001307B01A1002430980057
:100178002530990026309A0027309B0028309100BE
:10018800133090007D019101920193019B019C0124
:100198009D01A501A601A70108008131EC2180314C
:1001A80081315D2180314101101DD72840010C08A3
:1001B8000339FB000E081F39FA0003307B06031DC4
:1001C800E928823104228031D72802307B06031DBA
:1001D800F128823110228031D7287B03031DF828AB
:1001E80082311C228031D7287B08031DFF288231E9
:1001F80028228031D728823171228031D7289B3438
:100208000134003400340034003400340034003445
:100218000034003400340034003400340034003436
:100228000034003400340034003400340034003426
:100238000034003400340034003400340034003416
:1002480000340034003400340034003400345434B2
:1002580002344A3402340034003400340034790162
:10026800A5010730A6000730A7002508F33908388C
:10027800A500A401A301A201D530A100F330A50572
:10028800A401A301A201A101A0019F019E019D015A
:10029800FF309700FF309600940193019A014101C5
:1002A8008D1097100D1117117901A50110309200CA
:1002B800080041011A114D0196018D1541011011D7
:1002C8000330F9000230F80001304001AB00AA0108
:1002D8004A010C186C298D0101308E0002308F0004
:1002E800790890004D018D110D150D114101101166
:1002F8001A1508007408663EF6000030753DF700D0
:100308007508F1007408F0007708F3007608F20029
:1003180082315E22813182318D2281318231842283
:100328008131003A031D9229823189220800483020
:100338004E0192009030900026309100FF308E00E0
:100348008F010030F0000030F100823154228131F9
:100358000030F0000030F10082314A224001A4014F
:10036800A50108004D01960182308D008E018F0194
:100378009001910101309200930194019501970138
:100388008C308C00410110119730F0000230F100E0
:1003980082317E2241011A1508004A018C13293046
:1003A800F4000030F50081317E2106304A019500C5
:1003B8009901980197019601410113101D1093109E
:1003C8009D1013111D1193119D114A018C170800DE
:1003D8008231682281318131D121813180318F2070
:1003E80081318131B62181318131332181318131AE
:1003F8009B21813182319122813182314022080052
:100408004D010D157A084A018D00790890004101C7
:1004180010114D010D1108004D010D157A084A0102
:100428008E0079089000410110114D010D1108004E
:100438004D010D157A084A018F0079089000410195
:1004480010114D010D1108004D010D157A084A01D2
:1004580090007A08F900410110114D010D110800B2
:1004680010114001280829040319080029088A00E6
:1004780028080A008231080041010C100B140030D2
:10048800F0000030F1008231782208007008710411
:100498000319080071084001A1007008A0000800B5
:1004A800700871040319080071084001A30070085E
:1004B800A200080073087901970072089600710875
:1004C8009400700893000800603045018D008F018A
:1004D800910105309300920108004D010D1541016D
:1004E80010114D010D11080071084001A700700896
:1004F800A600080071084001A9007008A8000800BB
:100508007901120E890C013908001910121392137F
:100518000800921719141217080082319422080053
:080528007901901108000800A0
:020000040001F9
:0A000E008C3FFF3D9F3FFF3FFF3F87
:00000001FF
